:1000000000000420E1020000090300000B030000CF
:100010000D0300000F0300001103000000000000AA
:1000200000000000000000000000000013030000BA
:100030001503000000000000170300001903000072
:10004000D929000001710300C95003002DB9030034
:100050001B0300001B030000392A00001B030000E3
:100060001B0300001B0300001B0300001B03000018
:100070001B0300002D4D03001B0300001B030000A9
:100080001B030000D10900001B0300001B0300003C
:10009000950A00001B0300001B0300001B03000067
:1000A0001B0300001B0300001B0300001B030000D8
:1000B0001B0300001B030000000000000000000004
:1000C0001B0300001B0300001B0300001B030000B8
:1000D000614403001B0300001B0300001B0300001E
:1000E0001B0300001B0300009DF003000000000044
:1000F000000000001B030000000000001B030000C4
:1001000000000000000000000000000000000000EF
:1001100000000000000000000000000000000000DF
:1001200000000000000000000000000000000000CF
:1001300000000000000000000000000000000000BF
:1001400000000000000000000000000000000000AF
:10015000000000000000000000000000000000009F
:10016000000000000000000000000000000000008F
:10017000000000000000000000000000000000007F
:10018000000000000000000000000000000000006F
:10019000000000000000000000000000000000005F
:1001A000000000000000000000000000000000004F
:1001B000000000000000000000000000000000003F
:1001C000000000000000000000000000000000002F
:1001D000000000000000000000000000000000001F
:1001E000000000000000000000000000000000000F
:1001F00000000000000000000000000000000000FF
:1002000010B5054C237833B9044B13B10448AFF350
:1002100000800123237010BD580200200000000060
:1002200018C704000C4B43B10C480D4910B5AFF38F
:1002300000800C48036823B910BD0A48036833B92D
:100240007047094B002BF7D0BDE810401847064B0C
:10025000002BF5D0184700BF0000000018C70400AD
:100260005C0200205002002000000000154B002B13
:1002700008BF134B9D46A3F5803A00218B460F46DD
:100280001348144A121A3FF093FE0F4B002B00D074
:1002900098470E4B002B00D0984700200021040007
:1002A0000D000D48002802D00C48AFF300803FF04D
:1002B000FBFD2000290000F0D7F93FF0CFFD00BF83
:1002C0000000080000000420000000000000000002
:1002D0005802002080EB0020000000000000000019
:1002E0000649074A074B9B1A03DD043BC858D05008
:1002F000FBDC03F0CFFCFFF7B9FF000070C7040080
:100300000000002058020020FEE7FEE7FEE7FEE7BF
:10031000FEE7FEE7FEE7FEE7FEE7FEE770B505460F
:1003200008460BF070FB074C074B0849E41AE40839
:10033000240403462A4644F00300BDE8704001F05F
:100340009FBF00BF2CC704001CC70400B41E0400DC
:10035000F0B50B7885B00C460D2B28D8DFE813F0EC
:10036000350027006D00820027009A00B0002700AA
:10037000C40027002700EA00EE0029009C49284617
:1003800001F09AFEE3696A46191D8A4203D201A967
:100390008B42C0F00781186859689B688DE80B0094
:1003A0000023284693498DF80C3001F0F7FE05B084
:1003B000F0BD9148914B9249C01AC008000440F02A
:1003C000030001F079FE05B0F0BD8C4B8A4C8D49DD
:1003D0008D4DE41AE408240444F0030001F06CFE9F
:1003E0004FF0A0434FF480310022C3F80C1587482A
:1003F000C3F808252E6840F040FA314682B2844B9B
:10040000844803F04DFE28B10246834944F00100C0
:1004100001F0C4FE7D48814E40F02FFA3378296800
:10042000C2B2002B00F09D80794B7A4803F074FE35
:10043000002840F09E803070B9E7704B6E487849D4
:10044000C01AC008000440F0030001F035FE4FF070
:10045000A0434FF480310022C3F80815C3F80C25DF
:1004600005B0F0BD654B64486E496F4D6F4FC01AC3
:10047000C008000440F0030001F01EFEA668F36807
:1004800030687168B2680FC5338A2B8023793B705E
:1004900005B0F0BD594B584D6549ED1AED082D04D6
:1004A00045F00305284601F007FE574B228B9B8839
:1004B0009A423FF463AF28465E4901F0FDFD76E7BE
:1004C0004E4B4D4D5C49ED1AED082D0445F00305EA
:1004D000284601F0F1FD4C4B228B58499A80284662
:1004E00001F05CFE05B0F0BD444B434D5449ED1A9C
:1004F000ED082D0445F00306304601F0DDFD3046E1
:100500002279504901F04AFE424803F0E9FC0328F1
:100510003BD0464A4C4B127843493E4803F020FDFD
:1005200000283FF444AF0246484945F0010001F07D
:1005300035FE3CE73048314B45493DE72F4B2E4DCA
:100540004449ED1AED082D0445F00305284601F055
:10055000B3FD2846E38862793F4901F091FE05B07A
:10056000F0BD2B4B2B4803F0B9FD40B9012333708C
:100570001DE744F00100394901F09EFD17E744F002
:100580000100374901F098FD11E7224803F068FDAA
:1005900000283FF40CAF0246324945F0010001F05B
:1005A000FDFD04E719788DF8001059788DF80110D9
:1005B00099788DF80210D9788DF8031019798DF893
:1005C000041059798DF8051099798DF80610D979AC
:1005D0008DF80710197A8DF80810597A8DF80910DE
:1005E000997A8DF80A10DB7A8DF80B30D8E600BFC7
:1005F000D41C04000C1D04002CC704001CC70400FC
:10060000781C04000C1B04000C00002014000020C7
:100610001406002084040020301B0400160600206D
:10062000BC1B0400D41A040000060020120600209F
:10063000A81C0400181D0400E41B0400101C040086
:10064000DC1D0400181E04009C050020801E040010
:10065000481C0400641D0400A41D0400681B040061
:10066000941B04004C1E040030B54FF4004185B0CB
:10067000002001F091FB08B100F090F801F010FBB0
:100680003C4A2021082000F0D1F808B100F086F89B
:1006900000F0F0FB08B100F081F8002301204FF0DA
:1006A000A041032204E015F4F03F18BF41F82420D4
:1006B0000133202B00FA03F503F5E074F3D14FF07A
:1006C000A04200234FF4F031C2F8081501A8C2F887
:1006D0000C3501220193029303938DF8062005F057
:1006E00097F905F039FA244805F05EFA05F056FA54
:1006F000224A03464BF65901214803F0F5FB08B1A5
:1007000000F04CF81F4C20483C210122002361805E
:100710002270637040F0B1F81B49034682B204F1C5
:100720000A00A3803FF01FFC0521154803F0A0FE3E
:100730000246A0B11548164B16491B1ADB081B04CC
:1007400043F0030001F02AFD05F012FA00F0F6F87C
:1007500001F080FB0028F7D105F016FAF4E70B4B07
:100760000B480D49C01AC008000440F0030001F016
:10077000A3FCE9E7740200201D0300005103000000
:10078000840400209C050020000000201CC70400F9
:100790002CC704007C1A0400B41A040000B585B00C
:1007A00000230390194601AA44F201000193029329
:1007B00000F004F805B05DF804FB00BF10B572B698
:1007C00001F010FE01F046FB0028FBD1104B114C4C
:1007D0001149E41AE408240444F0010001F06CFC1F
:1007E0000E4B1B68DB0700D500BE44F002000C492D
:1007F00001F062FCBFF34F8F0A490B4BCA6802F449
:10080000E0621343CB60BFF34F8F00BFFDE700BF33
:100810001CC704002CC70400E41E0400F0ED00E037
:10082000F01E040000ED00E00400FA0512F00303DE
:1008300001D007207047F0B4094D0A4F2B700A4DC4
:100840003A604C1C2B70094F094D0A4E3880E40069
:10085000A4B22244298032601846F0BC704700BF21
:10086000170600201C060020240600202006002079
:1008700022060020180600202DE9F047294D2B887C
:100880008B4202D20920BDE8F087064600201746B9
:100890000C4600F0DBFB244B244A254819781378DA
:1008A0000088DBB2834238BF0133C9B234BFDBB248
:1008B000002399421FD092F800801378DFF87890D7
:1008C000DBB2984286BF0133DBB200235FFA88F8BF
:1008D0000020137000F0C2FBD9F800300FFA88F244
:1008E0004FEAC20A43F83270534406B14CB90020B3
:1008F0009880BDE8F087002000F0B0FB0420BDE840
:10090000F0870C4B28881B68314608FB00302246D4
:100910003FF029FBD9F800309A440020AAF804409F
:10092000BDE8F087200600202406002017060020DE
:1009300022060020180600201C0600202DE9F047A2
:10094000174C184D22782B789A4226D0DFF85C900D
:10095000DFF85C80144FDFF85CA02378D9F8002022
:100960003888D8F80060DBB20FFA83FC02EBCC01C8
:1009700003FB0060898852F83C3098472378BAF826
:100980000020DBB29A4203F101038CBFDBB20023EB
:10099000237022782B789A42DFD1BDE8F08700BF20
:1009A0002406002017060020200600201C06002038
:1009B0001806002022060020082910B5044602D09F
:1009C0000020FFF7EBFE23686068BDE81040184781
:1009D0002DE9F041274A284B0025C2F84051C2F8C2
:1009E0004451C2F84851C2F84C51C2F80051C2F803
:1009F00004511B6882B023B32049D2F804450A6829
:100A0000DFF88C80A41A1A6824F07F44A2422F4693
:100A100009D8197CDE69A41A1544A9B91EB1334658
:100A20001A68A242F5D91649164A0B7812789A42EA
:100A300019D01549154A41F823504FF48013C2F8D4
:100A4000003102B0BDE8F0819A691F7401925B69C0
:100A50000093424608216846FFF70EFF0028DDD0CC
:100A6000FFF79CFEDAE7531CDBB2022B08BF002322
:100A70000B70DEE70010014048070020440700200B
:100A800041070020400700203807002000E100E077
:100A9000B90900002DE9F04FB74AB8491378097831
:100AA000994285B033D00133DBB2022B08BF00235B
:100AB000B3481370B34A0768DFF8E08252F8232086
:100AC000D8F80010BB18002423F07F4303602546AC
:100AD0002046A646A9B10B68934200F27D81CC68FE
:100AE000C1F800E0D21A1844CB6934B13E1826F0A0
:100AF0007F46CD618C604E600D4619460124002969
:100B0000E9D1002C40F0A5814FF0010B05E0DFF8A2
:100B10008C820025D8F80010AB469B4B9B4FDFF82A
:100B2000809243F0010300930E464FF0000A002D1F
:100B30002DD0D5F804E0D5F808C02C46ED69904BCF
:100B400093481B68AEEB030222F07F42824255D8E5
:100B500002EB0C032360002201206260A260E261CC
:100B60002074002E6BD03068834261D9B64603E012
:100B7000106898424CD29646DEF81C201B1A002AB8
:100B8000F6D12360E261CEF81C40002DD1D197F858
:100B900001C097F800E0F44571D0734603EB4303BE
:100BA0000EF10100BA7807EBC3035FFA80FE7245CD
:100BB000187987F800E004BF4FF0000E87F800E0D6
:100BC00002289A684CD003283DD00128E3D1107C3C
:100BD0000028E0D1D3F80CE0C2F804E0D3F810C04C
:100BE000C2F808C014465A69E26099F800209B696F
:100BF000A361002AA3D060608646A0E7A3EB0E03A2
:100C000023F07F4363450AD2ACEB03032360A2E7E2
:100C1000C01A10602360E261CEF81C40B5E70023E3
:100C2000012223606360A360E36122743EB13068F7
:100C3000C8F80040C31A3360E661264677E7C8F873
:100C40000040264673E7002EA5D0002200E01E4695
:100C5000F3693274002BFAD1C8F800301E4696E7CB
:100C60004EB1B242344603D1BDE09A4260D01C4638
:100C7000E369002BF9D100231374F4458DD1BAF147
:100C8000000F02D18E4200F09D80002E00F0C58042
:100C90003B4B404A1C68D2F80475DFF80881D6F84F
:100CA00000A098F800103B1B23F07F43DD1CA9B97E
:100CB0003949354B4FF48030C2F844030126C2F85D
:100CC00004034FF40030C1F8800143F001030860D1
:100CD00016604FF43C60984788F80060AA452CBF26
:100CE00004EB0A0363192B4923F07F43C1F8403515
:100CF000D1F80425D21BDB1B22F07F4223F07F4377
:100D000003329A420ED9204BD1F80425C1F8402570
:100D100043F001034FF43C6098471F4B4FF40032FF
:100D2000C3F80021002389F8003005B0BDE8F08F3A
:100D3000A24239D0D2F81CE01368C4F81CE0BEF11E
:100D4000000F11D03046DEF800402344CEF80030CA
:100D5000864209D0002397F800E097F801C0137489
:100D600006464FF0010A88E7002397F800E097F85D
:100D700001C0137481E700BF400700204107002035
:100D80004407002038070020001F04002806002028
:100D9000FEFF7F000010014000E100E04807002056
:100DA00034070020350700201346F069C8F800001A
:100DB000D8B1D3F81CE01B68C4F81CE0BEF1000FEA
:100DC000C1D1C5E7BBF1000F7FF45FAF002389F805
:100DD000003005B0BDE8F08F002C3DD19B1A0B60B0
:100DE0004FF0010B99E63346DFE701931C4BDFF828
:100DF0007CC003924FF0010E0291C3F808E0009B03
:100E0000CCF8000089F800E04FF43C609847D8F82F
:100E10000000019B0299039ACBE7114D114A124C35
:100E20004FF480334FF400310127C2F880103C4367
:100E3000C5F848334FF43C60C5F808336F60A047ED
:100E40000A4BAF604FF43C601E60A047084B1E7019
:100E500068E7C8F8001057E6C8F80010BEE700BF02
:100E60000010014000E100E0001F040044070020E2
:100E7000350700202DE9F8431F4D204E204FDFF8A5
:100E800098804FF480334FF400324FF00109002472
:100E9000C6F8802047EA0907C5F848334FF43C609C
:100EA000C5F80833C5F80490B847C5F808904FF462
:100EB0003C60C8F80040B847124B13481349144A25
:100EC0001C70144B04600C7014704FF48011C0221D
:100ED0000B2098701C705C70C6F8801186F8142383
:100EE0003160C5F8084586F81123D5F80435C8F8EF
:100EF00000302046BDE8F8830010014000E100E02A
:100F0000001F04003507002048070020400700208C
:100F1000410700202806002044070020074B9B784B
:100F20000BB9082070473AB130B10368187C00282B
:100F3000F7D159745A61704707207047280600207E
:100F40002DE9F041234CA37813B90820BDE8F081C6
:100F50000028FAD0042902D80720BDE8F0814369AF
:100F6000002BF2D0437C0546012B4FF000000CBF54
:100F70008846804617460E4600F068F86378A078E9
:100F800021785A1CD2B2904208BF002291421AD056
:100F900003EB430304EBC30301200F499D60187169
:100FA000D1F80415D9601E61C3F814809F61002038
:100FB000627000F053F8094B4FF48012C3F800211F
:100FC0000020BDE8F081002000F048F80420BDE8D2
:100FD000F08100BF280600200010014000E100E081
:100FE00070B5184DAB780BB9082070BD0028FBD048
:100FF0004369002BF8D0002404740646204600F014
:1010000025F86A78A8782978531CDBB2984208BF83
:101010002346994211D002EB420205EBC2020221A3
:101020002046966011716B7000F018F8064B4FF473
:101030008012C3F80021204670BD204600F00EF853
:10104000042070BD2806002000E100E072B6024ACC
:1010500013680133136070474C070020034A13687C
:10106000013B136003B962B6704700BF4C07002014
:101070000B685A1EFF2A02D948F207107047202B2E
:10108000F0B516D802220023154C164F54F8224012
:101090003E68082B26FA03F234BF80254FF4807592
:1010A000D2070FD401330C2B2C44F2D148F2041098
:1010B000F0BD402BE6D9802B8BBF032202220823F0
:1010C0000023E1E74FF0010E074A0EFA03F326EA88
:1010D0000306144404603E6000200D60F0BD00BFB4
:1010E000081F04005007002054070020054A064945
:1010F00013686FEA13336FEA03330120087013603B
:101100000020704750070020540F002000B50A4B04
:1011100083B01B780190002200921BB9002003B01D
:101120005DF804FB01A96846FFF7A2FF0028F5D18E
:10113000009803B05DF804FB540F0020284B1B7887
:1011400083B378B3274B984239D003F180029042A1
:1011500033D003F5807290422DD003F5C0729042D7
:101160002FD003F5007290422DD003F520729042EB
:101170002BD003F54072904229D003F5607398425A
:1011800027D08033984226D003F58072904224D035
:1011900003F50072904206D003F54073984208BFF1
:1011A0000B2001D070470A200F4901220B688240B2
:1011B00013430B6070470220F6E70120F4E700209C
:1011C000F2E70320F0E70420EEE70520ECE7062035
:1011D000EAE70720E8E70820E6E70920E4E700BFA0
:1011E000540F0020540700205007002000B550E89D
:1011F000002F0B4640E8003E9EF0000FF7D110464E
:101200005DF804FB00B550E8003F03EB010240E845
:10121000002E9EF0000FF6D110465DF804FB00BFD3
:1012200000B550E8003FA3EB010240E8002E9EF01D
:10123000000FF6D110465DF804FB00BF00B5012396
:1012400050E8002F42EA030E40E800E191F0000F61
:10125000F6D170465DF804FB00B5002350E800EFBE
:101260000EEA030240E8002191F0000FF6D170462B
:101270005DF804FBB8B130B4416882680468521A62
:10128000D2B2531E2160DBB242B101680A685C1E13
:10129000551C0D601370E3B2FF2BF6D103680020DC
:1012A000187130BC70470E20704700BF70B50446FF
:1012B0000020FFF7CBFE236861681A688A4215D9BF
:1012C000511E19602168A3680D680879268A12F8F2
:1012D000012CE4685B1BDBB2984206FB024400D29F
:1012E0000B710020FFF7BAFE204670BD00240020DD
:1012F000FFF7B4FE204670BD38B5054600200C4609
:10130000FFF7A4FE2A681368591C1160E9682A8A4D
:10131000641AB4FBF2F41C700020BDE83840FFF7FB
:101320009DBE00BF826802B9704710B5044643698C
:101330000168006998470023A36010BD0EB400B592
:1013400082B0039929B102AA04AB42F8043D00F02F
:1013500095F802B05DF804EB03B070472DE9F84F43
:101360001746B942884606461D46DDF828B00B9A56
:101370007DD30B464FF00109B3FBF7F39F4209F110
:101380000109F9D9A94538BFA94612F0010A02D1CD
:10139000BBF1000F49D1B268012402E0013D07FB17
:1013A00004F4012DFAD8B8FBF4F18F42F7D9324D8D
:1013B00005E0B4FBF7F4A4B1B8FBF4F1B268685CE3
:1013C000531CB36033689854B26873689A4204FB44
:1013D0001188EED33046FFF7A5FFB4FBF7F4002CDD
:1013E000EAD1BAF1000F16D0BBF1000F33D0CB45D4
:1013F00088BF20243ED9B3683268591CB160D454E8
:10140000B26873689A420BF1FF3B06D2BBF1000F42
:1014100009D0D945EFD1BDE8F88F3046FFF782FFFC
:10142000BBF1000FF5D1BDE8F88F93071AD4202443
:10143000CB45B0D9B2683368511CB1609C54B268D6
:1014400073689A420BF1FF3B07D2BBF1000FA3D0A8
:10145000CB45F0D1A0E7BDE8F88F3046FFF762FF3B
:10146000B268F2E7002D0CBF30242024E0E74FF0F3
:10147000010987E7BDE8F88F301F0400002900F05C
:101480006F822DE9F04F064685B093460C460B78E7
:101490000DE0B2683168501CB0608B54B26873685C
:1014A0009A4280F0D3802378002B00F0BA80013478
:1014B000002B00F0B680252BEBD14FF0000823461F
:1014C00014F8012B2D2A00F0BB80302A00F0BB80DD
:1014D0002B2A00F0AD802A2A00F0BC80A2F1300552
:1014E000E9B2092998BF013302D9A9E1A1F1300578
:1014F0001C4613F8012BA2F1300005EB85010928E9
:1015000002EB4101F2D92E2A00F0B080002701E061
:1015100014F8012F02F0FB03682BF9D0253A532A67
:101520007AD8DFE812F07A01790079007900790041
:1015300079007900790079007900790079007900E3
:1015400079007900790079007900790079007900D3
:1015500079007900790079007900790079007900C3
:1015600079007900790079007900790079007900B3
:1015700079007900790079007900790079007900A3
:101580007900790079007900790079006A017900A1
:101590007900790079007900790079007900790083
:1015A00079005501FC007900790079007900FC0090
:1015B0007900790079007900790079005400790088
:1015C0007900CA007900BA00790079006A01DBF875
:1015D0000020131DCBF80030B368156831685A1C21
:1015E000B2604FF03002CA54B3687268934280F020
:1015F000A0813268581C7821B060D154B2687368F9
:101600009A4280F092810022082301922946009399
:1016100010223046FFF7A2FE01342378002B7FF41E
:1016200046AF337B002B40F0058105B0BDE8F08F5D
:10163000234614F8012B2D2A48F004087FF445AF07
:1016400048F001083BE748F0020838E73046FFF76A
:1016500069FE28E7DBF80020111DCBF800101568A3
:101660005A782E2A03F101047FF450AF6278A2F178
:101670003003092B04F101044FF000073FF64AAF95
:1016800007EB870702EB470714F8012FA2F130039D
:10169000092BA7F13007F3D93CE7DBF800301A1D1E
:1016A000CBF800201968CDF804803B4600950A224B
:1016B0003046FFF753FE0134AFE7DBF800301A1D68
:1016C000CBF8002018F0010FD3F8009040F0BB8059
:1016D000B9F1000F00F0478148463FF0CEF80746C9
:1016E000BD4240F2F180002D00F0EE804FF0200866
:1016F00005E0BD4200F0E880002D00F0E580B36811
:101700003268591CB16002F80380B26873689A426B
:1017100005F1FF35EDD33046FFF704FEE9E7DBF8CE
:1017200000301A1DCBF80020D3F8009089EAE97345
:10173000A3EBE973092B4FF0010A09DD8F4A82FB05
:101740000312DB17C3EBA203092B0AF1010AF5DC34
:10175000BA4538BFBA462DB3B9F1000F02DB18F015
:10176000040F00D0013D18F0020F40F0F58018F092
:10177000010F17D1002D00F0FE80AA4538BF2021AF
:1017800010D2B2683368501CB0609954B268736864
:101790009A4205F1FF3580F0E880002D00F0EB80E3
:1017A000AA45EED1B9F1000FC0F2C88018F0040FBD
:1017B0007BD108F00303022B00F09A808DE8200112
:1017C0003B4649460A223046FFF7C8FD013424E76C
:1017D000DBF80020131DCBF80030B36831681278B5
:1017E000581CB060CA54B26873689A42FFF414AFD0
:1017F0003046FFF797FD01340FE7DBF800301A1D84
:10180000CBF800201968CDF804803B4600951022E3
:101810003046FFF7A3FD0134FFE6B3683268591C78
:10182000B1604FF02501D154B26873689A42DFD29B
:101830000134F2E6304605B0BDE8F04FFFF772BD67
:101840001C4600255FE64F46A7EB090817F8013B49
:101850008BB1B2683168501CB0608B54B268736849
:101860009A42F1D33046FFF75DFDA7EB090817F860
:10187000013B002BEDD145457FF6CEAE202705E09C
:1018800045453FF4C9AE002D3FF4C6AEB36832689B
:10189000591CB160D754B26873689A4205F1FF359C
:1018A000EED33046FFF73EFDEAE7B2683368501CDE
:1018B0002B21B0609954B26873689A42FFF479AFF3
:1018C0003046FFF72FFD74E709F1FF3919F8013FA2
:1018D000002B3FF4A1AEB2683168501CB0608B544D
:1018E000B26873689A42F1D33046FFF71BFDEDE70B
:1018F000002F7FF463AF002D33D0AA45BFF45EAF55
:10190000B2683368511CB1604FF030019954B2682D
:1019100073689A4205F1FF3503D215B3AA45EFD19A
:101920004CE73046FFF7FEFCF7E73046FFF7FAFCDE
:1019300069E63046FFF7F6FCB3685AE6B2683368EA
:10194000501C2D21B0609954B26873689A42C9F155
:101950000009FFF42EAFB3E7002F3FF423AF06E7F3
:10196000704700252AE74F46BAE630460391FFF755
:10197000D9FC039911E7002514E700BF6766666686
:10198000FFF778BC2DE9F041B0F81080CF1CA8F12A
:10199000040847440646B7FBF8F7FFF787FC80B317
:1019A000FFB200250123013F0446A0F8068006602F
:1019B0000571437128D0804609E06379AF4203F195
:1019C00001036371C8F80000066080461CD03046F1
:1019D000FFF76CFC01350028EFD16679721E16D036
:1019E0002346013082421B68FBD81F684EB1214656
:1019F00000250C6801353846FFF77EFCAE422146D3
:101A0000F7D10020BDE8F0812046BDE8F0812768CD
:101A1000EDE700BF04300121FFF7F4BBF8B5012169
:101A200004460430FFF7FCFBC0B200B1F8BD667994
:101A3000721E12D02346013082421B68FBD81F68F9
:101A4000002EF3D0214600240D6801343846FFF7FC
:101A500053FCA6422946F7D1F8BD2768F2E700BF3C
:101A60002DE9F843C78890F805E0154607FB0EFE00
:101A7000EC18AEF1040E1A1DA6458846B2FBF7F627
:101A800038BFAEEB030507FB1621044616B1013E35
:101A90002468FCD17E1AAE4228BF2E469DB14FF07D
:101AA0000009081DAD1B08EB0901204432463EF039
:101AB0005AFAAF42B14424683E464FF0000128BFB5
:101AC0002E46002DEDD1BDE8F88300BF2DE9F84387
:101AD000C78890F805E0154607FB0EFEEC18AEF13E
:101AE000040E1A1DA6458846B2FBF7F638BFAEEBCA
:101AF000030507FB1621044616B1013E2468FCD1FC
:101B00007E1AAE4228BF2E469DB14FF00009043127
:101B10002144AD1B324608EB09003EF024FAAF42E7
:101B2000B14424683E464FF0000128BF2E46002DE8
:101B3000EDD1BDE8F88300BF82680023936082681E
:101B40001361826853618268D360826853608268DF
:101B500013607047704700BF00B583B0044B00931B
:101B6000044A402300F036F803B05DF804FB00BFE0
:101B7000791B0000580F002002B32DE9F843114BE8
:101B8000114E8846144643F00109032700252246DA
:101B900008EB0501002001F023FF03461D444FF42C
:101BA0007A40E41A23B9337833B1C847013F06D0ED
:101BB00001233370002CEAD1BDE8F88370473770F9
:101BC000BDE8F883401F0400550F0020704700BF98
:101BD00002F030B8F0B595B0002415460F4608461F
:101BE0001E46FFF717FF384623460822089505A929
:101BF0001A9D09960D950A948DF82C400C94FFF7C8
:101C000065FF9DF81430079806998DF8114003F090
:101C10000302012A0290039128D0022A04D03846F8
:101C2000FFF7FCFE15B0F0BDBDF81650C3F3C203BC
:101C30008DF81030C5F389150826082D2C4628BFCD
:101C40000824334622460EA93846FFF73FFF2D1BD6
:101C5000214608AB02AA0EA8264400F07FFC002D06
:101C6000EBD13846FFF7DAFE15B0F0BDBDF81460D1
:101C7000059DC6F38316C3F3C204B2000EA938460D
:101C800008238DF81040C5F39525FFF71FFF08AB1B
:101C90000093324628460EA902AB00F0B9FBBEE71E
:101CA00008B5FFF795FF0421034800F069FB034BDB
:101CB00001225A7108BD00BF44C704001C00002067
:101CC000F0B5334D85B005F58360FFF7B7FA05F23F
:101CD0001440FFF7B3FA6B68AE6803EA0600C11C54
:101CE00005EB810215F8214014F004040ED01178A0
:101CF00001F0030101293BD0022903F1020700F1A1
:101D0000030126D005EB8102002CF0D105EB800009
:101D10005A1CC1680191324005EB820201F00301B7
:101D2000D2680292012903F1020429D0022925D1A7
:101D3000BDF80630BDF80A60C3F38913033304EB22
:101D400093041448FFF788FA00B16C60304605B080
:101D5000F0BD538807EB931306EA0300C11C05EBA3
:101D6000810215F8214004F00404002CBFD1CDE716
:101D700011880233C1F383110B44EDE70026E0E73D
:101D8000BDF80430BDF80A60C3F383131C44D8E7E0
:101D9000681000207C1400200B4B0C4810B500226A
:101DA000FF21C3F8182499601A605A60C3F81424FC
:101DB00083F82024FFF7E4FD044610B90448FFF738
:101DC000BBFE204610BD00BF6810002054C70400B1
:101DD000641F040021B9114B03EBC0000068704779
:101DE00030B40F4A0D4C121BD2080CD00D4D2B886D
:101DF000834210D0002303E035F82310814205D040
:101E000001339A42F8D1002030BC704704EBC30084
:101E1000006830BC70472046FAE700BF1CC70400CA
:101E200044C7040054020020094B013903EBC000F1
:101E300003290BD8DFE801F00208060402207047EE
:101E40004079704700797047042070470020704740
:101E50001CC704002DE9F047914C94E80C009A420D
:101E600084B000F0B6800023C4F81834BFF34F8F5D
:101E70006368A56803EA0501CA1C04EB820614F82E
:101E8000222050071AD52768327802F00302012A6F
:101E900043D0022A03F1020202D1738802EB9313AA
:101EA00005EA0301D4F81804CA1C04EB820628B919
:101EB0009F4238D914F822205207E5D404EB81015F
:101EC0005A1CC96801912A4004EB820201F0030107
:101ED000D2680292022903F1020828D001297CD09D
:101EE000D4F810543DB12B6828469B689847EB689E
:101EF0001D68002DF7D16B486B4B6C49C01AC008A8
:101F0000000440F0020000F0D7F860682368C01AAF
:101F100018BF012004B0BDE8F08732880233C2F355
:101F200083121344BCE7676004B0BDE8F087BDF8D6
:101F300006305F48C3F389194F46502FA8BF50277A
:101F400067F38F1307F10801ADF80630FFF71AFDAC
:101F500006460028C4D025EA080A0AF1010AFFF75C
:101F600059FD4FEA8A0A0023082201A93046FFF7EB
:101F700077FD57456ED9BAF1000F7AD13A4608235A
:101F80004C493046FFF76CFD09F1030708EB970752
:101F9000D4F81834002B68D1D4F810545DB1EB6834
:101FA0005A79314628461AB12B681B689847EB6866
:101FB0001D68002DF3D13046FFF730FD0020FFF7FC
:101FC00045F8D4F8183403B967600020FFF746F8E5
:101FD0009BE7002004B0BDE8F087BDF8043034482A
:101FE000C3F38312062A28BF0622911C62F38913C9
:101FF0008900ADF80430FFF7C5FC064600283FF421
:102000006FAFFFF707FD0023082201A93046FFF755
:1020100027FDBDF8043013F4707F3FD04FF0000A65
:102020004FF0080905EA080103314B4604EB810132
:1020300004223046FFF714FDBDF804300AF1010A0E
:10204000C3F3831308F10107534509F10409B846A6
:10205000E8D89DE705EA0801033104EB81013A461F
:1020600008233046FFF7FCFC8EE73046FFF7D6FC2E
:102070004BE705EA08010331A7EB0A0504EB8101F0
:1020800052463046EDB20823FFF7EAFC2A460AF131
:10209000080308493046FFF7E3FC75E7474677E752
:1020A000681000202CC704001CC70400701F040027
:1020B00054C70400741000202DE9F843DFF8D890CD
:1020C000074600208846D9F80850FEF7BFFFD9F828
:1020D0000820D9F80430D9F80060134401339B1B61
:1020E000012B55D809F21C4401212046FFF78AF83C
:1020F000FFF7E6FD01462046FFF784F899E80A005D
:10210000D9F80820134401335B1A012BECD90124C0
:102110000A40033244F004036FF3891349F8223074
:1021200002310020C9F80010FEF798FF002119487D
:10213000FFF75CF880F3100033192B4009EB8303A1
:1021400000043540033540EA1740D86019F82530BF
:1021500067F3C50309F8253039F825306FF3891383
:1021600029F8253059F8252068F39F22134664F397
:1021700001036FF3820349F8252009F8253099F807
:1021800020341BB1FFF766FE0028FBD1BDE8F883C1
:102190003146BCE784140020681000202DE9F04788
:1021A000354C8046002092468946A568FEF74EFFD2
:1021B000A2686368276813440133DB1B022B59D8DC
:1021C00004F21C4601213046FFF71CF8FFF778FDAA
:1021D00001463046FFF716F894E80A00A268134457
:1021E00001335B1A022BEDD901260A40033246F077
:1021F000040366F3891344F8223003310020216080
:10220000FEF72CFFBB1C2B4004EB830300211B4873
:10221000C3F80CA0FEF7EAFF80F31000BB192B40B7
:1022200004EB830300043D40033540EA1840D860C6
:1022300014F8253068F3C50304F8253034F8253048
:1022400066F3891324F8253054F8252069F39F227A
:10225000134666F301036FF3820344F8252004F864
:10226000253094F820341BB1FFF7F4FD0028FBD192
:10227000BDE8F0873946B7E76810002084140020D5
:102280002DE9F04F3C4C83B08046002093460193EB
:102290008946A668FEF7DAFEA268636827681344D9
:1022A0000133DB1B032B64D804F21C4501212846B3
:1022B000FEF7A8FFFFF704FD01462846FEF7A2FF40
:1022C00094E80A00A268134401335B1A032BEDD98A
:1022D00001250A4003324FF0020A45F0040304319D
:1022E0006AF38913002044F822302160FEF7B6FE1D
:1022F00007EB0A0EFA1C0EEA060E324004EB8202CD
:1023000004EB8E0E019B1D48CEF80CB00021D3606B
:10231000FEF76CFF80F310007A19324004EB820262
:1023200000043E40033640EA1840D06014F82620EE
:1023300068F3C50204F8262034F826206AF38912CF
:1023400024F8262054F8262069F39F22134665F3CB
:1023500001036FF3820344F8262004F8263094F832
:1023600020341BB1FFF776FD0028FBD103B0BDE898
:10237000F08F3946ACE700BF6810002084140020BD
:1023800030B4174DD5F8104400215CB1E3681A79D8
:102390008A4204D116E0DB681A798A4212D01B689F
:1023A000002BF8D1C3681971D5F8103493B1DA68ED
:1023B000C36812681A60D5F81034DB6818600846E4
:1023C00030BC704701310A29DFD14FF0FF31084698
:1023D00030BC7047C5F81004C2681360EFE700BF57
:1023E0006810002038B5094BD3F81044012583F854
:1023F00020544CB1E3685D71236820465B689847C0
:10240000E3681C68002CF5D138BD00BF68100020BF
:102410002DE9F04784B01D460C9C002394F80C80F5
:102420002373EB8881460E461746002B3BD1297A51
:1024300005290FD06B7A002B3DD1404BA88853F86B
:1024400021A00021FFF7C6FC524603463C49204626
:10245000FEF774FF062F0FD8DFE807F0484D535AF8
:1024600004633900F168B06896E80C0001910090AF
:1024700049462046FEF762FF2B7A052B05D06B7A82
:102480005BB930492046FEF759FF2046FEF74AFF68
:1024900084F80C8004B0BDE8F0872B4A2B49204615
:1024A000FEF74CFFEDE7284A00922949294A2046C9
:1024B000FEF744FFBBE7A888FFF7B6FC264B23498D
:1024C00053F820202046FEF739FF297AB5E77069D6
:1024D000316996E80C000390B068F76802918DE8C6
:1024E000810049462046FEF729FFC5E749462046B8
:1024F000FEF724FFC0E7326849462046FEF71EFF7C
:10250000BAE7494696E80C002046FEF717FFB3E706
:10251000B16896E80C00204600914946FEF70EFF90
:10252000AAE7B068F768316996E80C0002918DE877
:10253000810049462046FEF701FF9DE7F41F040095
:10254000E81F0400A41C0400E01F040090290400FC
:10255000C81F0400C01F0400881F0400082900D9F8
:1025600070472DE9F04F1D46904600232A7B2B73C0
:1025700085B0B8F80630039207460E46002B6BD1A3
:1025800098F80810052911D098F80930002B6BD164
:102590003C4BB8F8040053F821400021FFF71AFC27
:1025A0002246034638492846FEF7C8FEDFF8F8B051
:1025B000DFF8F8900024A642494628463ED93A5D05
:1025C0000134FEF7BBFE082CF5D13049DFF8E0906E
:1025D000DFF8E0B02846FEF7B1FE002411E017F85E
:1025E00004A03DF089FC50445946437813F0970FFE
:1025F00014BF52462E2228460134FEF79FFE082CB7
:1026000008D0A64249462846E9D80134FEF796FE8E
:10261000082CF6D198F80830052B02D098F809302C
:10262000A3B91B492846FEF789FE2846FEF77AFE25
:102630009DF80C302B7305B0BDE8F08F013459467E
:102640002846FEF77BFE082CB5D1BEE7114A124999
:102650002846FEF773FEE4E70E4A00920F49104A3F
:102660002846FEF76BFE8BE7B8F80400FFF7DCFBAB
:102670000C4B094953F820202846FEF75FFE98F8D6
:10268000081085E7F41F0400E81F0400B81F0400C9
:10269000A41C0400E01F040090290400C81F0400CB
:1026A000C01F0400881F0400B41F0400AC1F0400F6
:1026B000F01F0400BC1F040010B568B101280AD146
:1026C0000C4C2369A07033B10CCB012022619847D8
:1026D0002369002BF8D110BD064CA368012262705B
:1026E000002BF8D00CCB0020A2609847A368002BE9
:1026F000F8D110BD2415002010B50B4C237882B002
:1027000013B1852002B010BD08486360A360236147
:10271000E36000F0F5F8019000F000F90198012362
:10272000237002B010BD00BF24150020B9260000A0
:1027300038B5154DAB78044673B110B1436801202C
:1027400098470020FEF782FCEB680133EB60002025
:10275000BDE83840FEF782BC03F0FF00FEF776FCD0
:1027600064B12A6942B1944208D0134601E09C4208
:1027700004D01B68002BFAD122602C61EB68002B7F
:10278000E2D100F0DFF8DFE72415002038B5084C6F
:102790000020FEF75BFCE368013BE360E56815B9E8
:1027A00000F0E8F8A5700020BDE83840FEF756BC00
:1027B000241500204FF08043D3F81804C0F30040E4
:1027C000704700BF38B5154D6B78044673B110B132
:1027D0004368002098470020FEF738FC6B680133FF
:1027E0006B600020BDE83840FEF738BC03F0FF0006
:1027F000FEF72CFC64B1AA6842B1944208D013469B
:1028000001E09C4204D01B68002BFAD12260AC602E
:102810006B68002BE2D100F0B9F8DFE72415002047
:1028200038B5084C0020FEF711FC6368013B63607B
:10283000656815B900F0BCF865700020BDE8384047
:10284000FEF70CBC241500204FF08043D3F80C0495
:1028500000F00110A0F10110B0FA80F040097047BB
:102860000A4A0223C2F80435BFF36F8FBFF34F8FBC
:10287000C2F80805D2F80034002BFBD00023C2F8C0
:102880000435BFF36F8FBFF34F8F704700E00140F7
:102890009AB32DE9F047194CA0EB01080D468E18AC
:1028A000C0004FF0FF0C4FF0010E002708EB0502AF
:1028B00022F0030200F01809116815F8013BC4F872
:1028C00004E50CFA09FA21EA0A01BFF36F8FBFF39E
:1028D0004F8F03FA09F30B441360D4F80034002B34
:1028E000FBD0C4F80475BFF36F8FBFF34F8FAE42B8
:1028F00000F10800DAD1BDE8F087704700E0014040
:10290000054A13790BB1852070470121106053717E
:1029100018461171704700BF38150020084B1A681F
:10292000D20706D40122C02183F80013C3F8802106
:102930001A604FF080430122C3F81825704700BF8A
:1029400000E100E010B4094B094A0021196083B08E
:102950001B680193019C4FF0804102200123C1F8C4
:102960000403136003B05DF8044B7047040100409A
:1029700008000040044B01221A604FF08042D2F858
:102980001834DB03FBD470470C000040074B0022D7
:102990001A6082B01B68019301994FF080430122B5
:1029A000C3F804231A6002B0704700BF0001004062
:1029B000074B01221A604FF08042D2F80C3403F02A
:1029C0000113B3F1011FF8D0024B00225A71704776
:1029D000040000403815002010B5144B1A6882B06E
:1029E00062B10021124A19601B68507900934FF0C0
:1029F00080410123009CC1F8083390B10D4B1A6847
:102A00006AB100221A601B6801934FF080420221D4
:102A1000074B0198C2F808131B680120984702B0C1
:102A200010BD116853718847E8E700BF00010040FE
:102A300038150020040100402DE9F04788B000233C
:102A4000CB4A039302931168012900F0A8821E4625
:102A5000C84B1A68012A00F09482C74B1A68012AF1
:102A600000F08182C54B1A68012A00F06E82C44BC7
:102A70001A68012A00F05B82C24B1A68012A00F032
:102A80004882C14B1A68012A00F03582BF4B1A6890
:102A9000012A00F02282BE4B1A68012A00F00C8243
:102AA00016F0FF0F1AD0BB4F01250024A30003F13D
:102AB00080432E4203F5C0434FEA45050BD0D3F8BF
:102AC000100557F82420D3F81015C0F30520C1F3E2
:102AD000014102B190470134082CE7D1002E02DBFE
:102AE00008B0BDE8F0870DF1100800224FF0FF3369
:102AF000A84CA94FC8F80420049206930793012616
:102B000094F960305A1C21D05FFA83FE2EF0C00089
:102B100008AB4FEAD00903EB090C0EF007031CF8D1
:102B2000082C06FA03F31A4040F0388194F961103A
:102B3000481C00F06A8215460DE0022A06D10329DE
:102B400000F06082002D00F03682A84794F96110F1
:102B50004A1C51D00025CBB223F0C00008AA4FEA8E
:102B6000D00C02EB0C0E03F007011EF8082C06FA3D
:102B700001F912EA090F4CD194F96210481C11D0E6
:102B8000CBB223F0C00008AA4FEAD00C02EB0C0E27
:102B900003F007011EF8082C06FA01F912EA090FE2
:102BA00040F0AD8094F963305A1C0FD0DBB223F0B3
:102BB000C00008AA4FEAD00C02EB0C0E03F007028B
:102BC0001EF8081C06FA02F211425AD1002D87D0D5
:102BD0004FF0A0430299D3F81035D7F81025994249
:102BE00003D1039991423FF47BAF04980599029376
:102BF00003920690079183E794F962104B1C01D071
:102C00000025BDE794F963305D1C3FF469AF0025F2
:102C1000CCE72218990992F9302054F82220002A92
:102C200000F02381032900F023811F2800F20C818A
:102C300084464FF0A04303EB8C031EF818CCD3F866
:102C400000E71CEA090FCEF3014E40F0F380BEF11D
:102C5000030F91D103290FD14FF4003ED3F800C7E1
:102C60002CF4403CC3F800C7D3F800C701354EEA46
:102C70000C0EEDB2C3F800E7002A3FF47DAF904799
:102C80007AE704EB0009990999F9309054F82990F2
:102C9000B9F1000F00F0FD80032900F0FD801F282E
:102CA0008BBFBC464FF0A04C03F01F0303460CEB58
:102CB00083031EF818CCD3F800E71CEA020FCEF30A
:102CC000014E40F0A680BEF1030F7FF47FAF0329D1
:102CD00040F0A6804FF40032D3F800E72EF4403ED7
:102CE000C3F800E7D3F800E7013542EA0E02EDB27F
:102CF000C3F80027B9F1000F40F0968068E722186A
:102D0000990992F9302054F82220002A00F0B78067
:102D1000032900F0B7801F2800F2A38084464FF0FB
:102D2000A04303EB8C031EF818CCD3F800E71CEA91
:102D3000090FCEF3014E40F08B80BEF1030F7FF4FC
:102D400031AF03290FD14FF4003ED3F800C72CF464
:102D5000403CC3F800C7D3F800C701354EEA0C0E5B
:102D6000EDB2C3F800E7002A3FF41CAF904719E723
:102D70000061004004610040086100400C610040B7
:102D80001061004014610040186100401C61004067
:102D90007C610040401500200003005022184FEADB
:102DA0009E1192F9302054F82250002D7BD0032937
:102DB0007CD01F283AD802464FF0A04E0EEB820E70
:102DC0001CF8189CDEF8002719EA0309C2F3014237
:102DD0007FF4B3AE032A7FF4B9AE03297FF4B2AE19
:102DE0004FF40032DEF8003723F44033CEF80037DA
:102DF000DEF800371343CEF80037002D00F0ED80E9
:102E00000321A84794F961104B1C00F0EB800125C9
:102E1000A1E6BEF1020F7FF4D9AE032900F0EF80E6
:102E2000B9F1000F3FF4D2AEC847CFE60EF01F0253
:102E3000BE46C3E7BEF1020F7FF49EAE03297FF4C6
:102E40001BAF4FF4403E09E703F01F0C3B46F2E690
:102E5000BEF1020F7FF4A6AE032984D14FF4403EA9
:102E600073E703F01F0C3B465BE703297FF484AE56
:102E700018F80CA04AEA090A08F80CA0D5E60329BC
:102E80007FF490AE18F80CA04AEA090A08F80CA0E2
:102E900041E703297FF49AAE18F80CA04AEA020A27
:102EA00008F80CA0FBE6032940F0858018F80920FB
:102EB0001A4308F809207CE700221A601B68019376
:102EC0004FF0A042019BD2F81025564B0292D3F846
:102ED0001035039346F00046E2E5534AD2F8042346
:102EE00011067FF5D8AD00221A601B680093009B85
:102EF00046F08006CFE54C4AD2F8042350067FF511
:102F0000C5AD00221A601B680093009B46F0400686
:102F1000BCE5454AD2F8042394067FF5B2AD002201
:102F20001A601B680093009B46F02006A9E53E4A04
:102F3000D2F80423D5067FF59FAD00221A601B68E6
:102F40000093009B46F0100696E5374AD2F804231A
:102F500017077FF58CAD00221A601B680093009B59
:102F600046F0080683E5304AD2F8042352077FF57D
:102F700079AD00221A601B680093009B46F004069E
:102F800070E5294AD2F8042391077FF566AD002247
:102F90001A601B680093009B46F002065DE522491B
:102FA000D1F8046316F001063FF452AD13601368C4
:102FB0000093009B4CE594F961104B1C7FF4CBAD62
:102FC00094F96210481C7FF4DBAD94F963305A1C0D
:102FD0007FF4ECAD08B0BDE8F08794F961104D1CAA
:102FE0007FF415AF94F96210481C01D00125C7E5A4
:102FF00094F96330591C3FF4EBAD0125D6E54FF44D
:10300000403269E64FF44032ECE694F962104B1C12
:1030100001D01546B4E594F963305D1C3FF460AD12
:103020001546C3E50003005000600040F0B502F112
:10303000080583B007460C46164695E80700019739
:1030400000F0F0FA053000F073FAA0422ADC0146E5
:10305000019800F073FA019B02AC184444F8040D87
:103060000421204600F09AFAB27DF37D00216FF32F
:10307000070162F3820163F3C3012046C9B200F085
:103080008DFA2046012100F089FAB18A204600F02D
:103090008BFA204695E80E0000F0A0FA0198C01BBC
:1030A00003B0F0BD6FF00100FAE700BF30B50B468A
:1030B00083B01146054601AA1846009300F04CFA69
:1030C000009B019A0344022A0446009302DC204636
:1030D00003B030BD684600F05BFA0528F7D16846BA
:1030E00000F056FA01242860F1E700BF70B582B005
:1030F000161E044601900D461DDD032000F018FA4F
:10310000854214DB0146019800F018FA019B02ADDC
:10311000184445F8040D1821284600F03FFA3146BE
:10312000284600F041FA0198001B02B070BD6FF014
:10313000010002B070BD012000F0FAF9854201469D
:10314000F5DB019800F0FAF9019A02AB104443F85C
:10315000040D1821184600F021FAE4E782B030B5DA
:1031600083B006AC84E80C0006AB05460C4693E839
:103170000700019500F056FA013000F0D9F9A0429D
:1031800018DC0146019800F0D9F9019B02AC184403
:1031900044F8040D1621204600F000FA06AB204644
:1031A0000ECB00F01BFA0198401B03B0BDE8304085
:1031B00002B070476FF00100F7E700BF2DE9F04162
:1031C00084B090460AAA06460D4607CA01AC84E8B8
:1031D00007001F46009600F025FA023000F0A8F91B
:1031E000854221DB0146009800F0A8F9009B04AD60
:1031F000184445F8100D0721284600F0CFF90021AA
:103200006FF3070168F3461167F304112846C9B24A
:1032100000F0C4F9284694E80E0000F0DFF90098A9
:10322000801B04B0BDE8F0816FF00100F9E700BF3A
:1032300082B070B584B008AC84E80C0006460D4638
:1032400094E8070001AC84E80700009600F0EAF972
:10325000013000F06DF9854218DB0146009800F05E
:103260006DF9009B04AD184445F8100D092128465E
:1032700000F094F9284694E80E0000F0AFF90098A9
:10328000801B04B0BDE8704002B070476FF00100D1
:10329000F7E700BF10B50B4682B01146044601AAFD
:1032A0001846009300F058F9009B019A1844022A2E
:1032B000009003DC0023184602B010BD684600F001
:1032C00067F91B28F6D1684600F062F901232060F7
:1032D000F1E700BF10B50B4682B01146044601AAC3
:1032E0001846009300F038F9009B019A1844022A0E
:1032F000009003DC0023184602B010BD684600F0C1
:1033000047F91D28F6D1684600F042F901232060F4
:10331000F1E700BF2DE9F04383B002AF002447F886
:10332000044D0E9D0D9C009481460E46204690460D
:1033300029463A461F4600F00FF9009B019A1844AF
:103340001444231A9D42009003DA002003B0BDE824
:10335000F083684600F01CF90C28F6D1684600F0AE
:1033600017F9002360F30703C3F3010243F3C0110D
:10337000C3F34110C3F3001389F80010306088F8DC
:1033800000300A9BD1B21A70E9B101291ED06846FB
:1033900000F0FEF80A9B1871684600F0F9F80A9BE5
:1033A0005871684600F0ECF80A9B38801B7813B916
:1033B0003368032B10D0009B0C9AE41A14600B9A0C
:1033C00001201360C2E73368032B0CD0684600F07D
:1033D000D7F80A9B9880E4E70A9A009B92680A99BA
:1033E0004B601344E8E7684600F0CAF80A9B98600F
:1033F000D7E700BF2DE9F04182B00DF1080E00249F
:103400004EF8044D089D009380460F461846164618
:10341000294672461C4600F09FF89DE80C001044B7
:103420001C44241AA542009004DA0023184602B076
:10343000BDE8F081684600F0ABF80D28F5D168468C
:1034400000F09EF8A8F80000684600F099F838806F
:10345000684600F09DF801233070E7E72DE9F0435E
:1034600083B00DF1080E00260A9D4EF8046D8146CA
:10347000884618461746294672461C46009300F0B7
:103480006BF89DE80C0010441C44231A9D420090E8
:1034900003DA002003B0BDE8F083684600F078F856
:1034A0000A28F6D1684600F06BF8A9F800006846D3
:1034B00000F066F8009BA8F80000E41A3E607C600B
:1034C000BB600120E6E700BF2DE9F04182B00DF1BD
:1034D000080E00244EF8044D089D009380460F46C8
:1034E00018461646294672461C4600F035F89DE8F7
:1034F0000C0010441C44241AA542009004DA002356
:10350000184602B0BDE8F081684600F041F80B288B
:10351000F5D1684600F034F8A8F80000684600F0DD
:103520002FF83880684600F033F801233070E7E761
:10353000FF28CCBF03300130704700BFFF2903468E
:1035400006DD81700A120121427003201970704754
:10355000C9B201201970704700290EDD0378012BD4
:1035600002D0136001207047022906DD417883787C
:1035700003EB01231360032070474FF0FF307047C7
:10358000036819785A780233036002EB0120704710
:103590000368024613F8010B136070470368197043
:1035A000036801330360704700290268B4BF01F16A
:1035B000FF030B461B1210B4137002684B42DBB2C0
:1035C000C9B202F1010458BF594204605170036846
:1035D0005DF8044B01330360704700BF70B584B0E1
:1035E00004AC04E90E00029D002D04460FDC019D91
:1035F0005DB128463DF041F929460646024620685D
:103600003CF0B1FC20683044206004B070BD2A4614
:10361000039900683CF0A7FC23681D44256004B0B2
:1036200070BD00BF84B004AB03E90700019810B17E
:1036300004B03DF022B9029804B0704770B582B072
:10364000054602200C4601951646FFF771FFA04281
:1036500014DC01460198FFF771FF019B02AC18448E
:1036600044F8040D01212046FFF798FF204631461B
:10367000FFF794FF0198401B02B070BD6FF001008E
:10368000FAE700BF2DE9F04182B0054606200C465E
:10369000019590461F469DF82060FFF749FFA04224
:1036A0001DDC01460198FFF749FF019B02AC18445D
:1036B00044F8040D0D212046FFF770FF41462046D7
:1036C000FFF772FF39462046FFF76EFF204631466E
:1036D000FFF764FF0198401B02B0BDE8F0816FF076
:1036E0000100F9E72DE9F04782B007460A9E0190F4
:1036F00034688A46914698464CB320463DF0BDF862
:103700000546681DFFF714FF504524DC014601986B
:10371000FFF714FF019B02AC184444F8040D0A2182
:103720002046FFF73BFF49462046FFF73DFF414655
:103730002046FFF739FF3168019851B12A463CF025
:1037400012FC01982844C01B02B0BDE8F0877568E0
:10375000D7E7B168F2E76FF00100F5E72DE9F04136
:1037600082B0054606200C46019590461F469DF8FE
:103770002060FFF7DDFEA0421DDC01460198FFF747
:10378000DDFE019B02AC184444F8040D0B212046D9
:10379000FFF704FF41462046FFF706FF3946204663
:1037A000FFF702FF20463146FFF7F8FE0198401B65
:1037B00002B0BDE8F0816FF00100F9E72DE9F047B4
:1037C00082B006460B9DBDF828702C7801908A4681
:1037D000914698467CBBA8680430FFF7A9FE504587
:1037E00041DC01460198FFF7A9FE019B02AC184499
:1037F00044F8040D12212046FFF7D0FE00216FF39C
:1038000007012B7869F3C71168F3461163F30101CF
:10381000C9B22046FFF7C2FE39462046FFF7C4FE74
:103820002B7873B1012B21D0022B13D00198801B70
:1038300002B0BDE8F087013C012C94BF06200420B3
:10384000CBE7AA68696801983CF08DFBAB680198EA
:103850001844ECE729792046FFF7A0FE6979204655
:10386000FFF79CFEE2E76FF00100E1E72046A98840
:10387000FFF79AFE0198DAE72DE9F04383B002AE34
:10388000002446F8044D0B9D0A9C0094814688460E
:1038900020461746294632461E46FFF75DFE009B2E
:1038A000019A18441444241AA542009004DA002313
:1038B000184603B0BDE8F0836846FFF769FE132899
:1038C000F5D16846FFF764FEC0F34110C9F8000067
:1038D0006846FFF755FEA8F800006846FFF750FE5F
:1038E00038806846FFF754FE01233070E0E700BFE0
:1038F000F0B51D4683B01B78019006460C4617466E
:1039000033BBA8680430FFF713FEA04238DC014641
:103910000198FFF713FE019B02AC184444F8040D14
:1039200014212046FFF73AFE2978204601F00301D2
:10393000FFF734FE39462046FFF736FE2B786BB191
:10394000012B20D0022B12D00198801B03B0F0BDB8
:10395000013B012B94BF06200420D4E7AA686968C4
:1039600001983CF000FBAB6801981844EDE7297919
:103970002046FFF713FE69792046FFF70FFEE3E7C5
:103980006FF00100E2E72046A988FFF70DFE0198DD
:10399000DBE700BF70B582B002AB002443F8044DF2
:1039A00015460C461A460646294620460094FFF75F
:1039B000D3FD009B019A18441444241AA542009098
:1039C00003DA0023184602B070BD6846FFF7E0FD39
:1039D0001528F6D16846FFF7D3FD01233080F1E7C3
:1039E0002DE9F84F4400DFF87CA126180AEBC60643
:1039F0008146D6F82C80B8F1010F8B46174661D06E
:103A000038D3B8F1020F30D100F1010909EB4909AF
:103A1000756A4FEAC9094FF000081CE0326A641B5E
:103A2000BC420AEB09012346A2EB050428BF3B4632
:103A30009C42486828BF1C462844594622463CF010
:103A400092FA336A25449D4208BF00253F1BA044DB
:103A5000A34475620BD0B36AAB4203F1FF34DDD8E7
:103A6000326A1344013B5C1BDAE74FF00008404622
:103A7000BDE8F88FB36A756AAB429CBF326A9B1887
:103A8000013B5B1B9F42F2D804440AEBC40400F1E3
:103A90000109266A761B09EB4909B7420AEBC90AF4
:103AA00056D3DAF8040032462844BD1B3CF05BFADA
:103AB000DAF804000BEB06012A463CF054FAB8464B
:103AC0006562D4E7B36A756AAB4226D903F1FF3861
:103AD000366AA8EB0508B84528BFB846761BB0453E
:103AE00023D309F1010707EB47070AEBC707A144F6
:103AF00078683246594628440AEBC90AA8EB0605FD
:103B00003CF031FA78680BEB06012A463CF02BFAC0
:103B1000CAF824504046BDE8F88F366A03EB060821
:103B200008F1FF38A8EB0508D5E709F1010303EB1D
:103B300043030AEBC303A14458680AEBC90A2844AB
:103B40005946424645443CF00EFACAF824508EE7E6
:103B5000DAF804003A4628443D443CF004FAB846FA
:103B6000656284E714CA00202DE9F0412B4C94F8DB
:103B700000E00546884617461E46BEF1000F23D0DA
:103B80002369AB4246D90020FDF760FA5DB92A46A9
:103B9000154404EBC504069BE3620020FDF75EFAC2
:103BA0000020BDE8F0816B1C03EB4303DB006A00DF
:103BB000511904EBC10144F80380234400205F60E5
:103BC0000E6288624862E3E70222154B15482261C3
:103BD00062614FF40071144AA361A3641023C4F816
:103BE00028E02365C4F824E0C4F82CE0C4F858E0C9
:103BF000C4F854E0C4F85CE0E0612162E2640B497F
:103C0000E01D3CF01DFE0A4920463CF019FE202331
:103C1000A371B5E74FF0FF30BDE8F08114CA002072
:103C200078200400BC150020AC150020842004007E
:103C300088200400F8B5114C114B124AE3614FF48F
:103C400000750023104FA36210266362E362A36530
:103C50006365E3650D492562A2610225A264E01D4A
:103C6000E7642665256165613CF0EAFD2046084968
:103C70003CF0E6FD2023A371F8BD00BF14CA00206C
:103C8000BC15002078200400AC150020842004001E
:103C90008820040010B44FF080414FF08052002083
:103CA000C1F80C015E4BC1F81001C1F83805D2F81B
:103CB0000414C3F82015D2F80814C3F82415D2F858
:103CC0000C14C3F82815D2F81014C3F82C15D2F828
:103CD0001414C3F83015D2F81814C3F83415D2F8F8
:103CE0001C14C3F84015D2F82014C3F84415D2F8B8
:103CF0002414C3F84815D2F82814C3F84C15D2F888
:103D00002C14C3F85015D2F83014C3F85415D2F857
:103D10003414C3F86015D2F83814C3F86415D2F817
:103D20003C04C3F86805D2F840043E49C3F86C056A
:103D30000968D2F84424C3F87025082924D04FF02C
:103D40008043D3F80024D20744BF6FF00102C3F8C8
:103D50000024354AD2F8883043F47003C2F8883022
:103D6000BFF34F8FBFF36F8F4FF01023D3F80022B4
:103D7000002A23DBD3F80432002B1FDB2B4B2C4A09
:103D80001A605DF8044B70472A4B1B68002BD6D194
:103D900029482A4A2A4C04602A492B4BFB20C2F8A6
:103DA00018050A681B68294822F00F0203F00F0368
:103DB00013434FF400720B600260C0E7244B0122F2
:103DC000C3F80425D3F80024002AFBD04FF01023B9
:103DD00012221F49C3F80022D1F80034002BFBD077
:103DE0004FF0102212211A4BC2F80412D3F800240B
:103DF000002AFBD000221649C3F80425D1F800346C
:103E0000002BFBD0BFF34F8F0749124BCA6802F457
:103E1000E0621343CB60BFF34F8F00BFFDE700BFED
:103E200000C000403001001000ED00E02400002040
:103E30000090D003340100108C56004000F0004088
:103E400048810300E40E00405802001040960240F2
:103E500000E001400400FA0590F82830013B062BF1
:103E600030D8DFE803F026040B08151A20000429D7
:103E70002BD0092913D0012920D0704704292BD039
:103E80000C2912D00329F8D1062380F82830704776
:103E900005291DD00B2908D070470629EDD1012333
:103EA00080F8283070470729E7D1042380F82830AC
:103EB0007047022909D00C29DDD1F6E7052380F8E7
:103EC000283070470829F0D0D7E780F828107047CD
:103ED000032380F828307047072380F82830704784
:103EE00090F82800704700BFB8B1B2B1ABB1F8B5D7
:103EF00007461D4614460E4600F078FBFDF7F6F81F
:103F000068B11248124B1349C01AC008000440F0AF
:103F10000100FEF7D1F80320F8BD0E2070472A46B5
:103F20003146384601F0E0FC18B10848084B0A4910
:103F3000EAE701F035FC28B90423C7F8144187F8F3
:103F40002830F8BD0148024B0449DDE72CC70400C6
:103F50001CC7040090200400B8200400DC200400EA
:103F60002DE9F04110B109B103B11AB90E25284667
:103F7000BDE8F0815C88002CF8D09C88002CF5D03E
:103F80005C78012C04D090F8284044B90F25EEE766
:103F9000DC88002CEAD01C89002CE7D0F3E7042C45
:103FA00004D0013C012C01D90825E0E700F13A08D2
:103FB000044617460D461222002140461E463BF09D
:103FC000F7FF4046294612223BF0CDFF84F83870B7
:103FD0007388A4F84E30337884F84C30737884F8C2
:103FE0004D307378D3B9B388A4F8503004F1560536
:103FF000B288284600213BF0DBFF2846B28806F154
:104000000A013BF0B0FF204601F0C6F80546002843
:10401000ADD120460121FFF71FFFA8E73389A4F89F
:10402000543004F18D053289284600213BF0C0FF51
:10403000328906F1410128463BF095FFF388A4F848
:10404000523004F16D05F288284600213BF0B0FFA4
:104050002846F28806F121013BF085FFC3E700BF47
:1040600040B110B590F82830023B012B044603D92B
:104070000F2010BD0E207047002101F03DFB0028ED
:10408000F7D194F82830022B06D0032B03D1072355
:1040900084F8283010BD10BD042384F8283010BDEA
:1040A00030B129B170B582B022B90E2002B070BD16
:1040B0000E20704790F82840032C054618BF0F20AB
:1040C000F4D11E460C46002369460094019301F08A
:1040D000EDF8002EEAD02B883380E7E730B129B124
:1040E00070B582B022B90E2002B070BD0E207047AC
:1040F00090F82840032C054618BF0F20F4D11E4627
:104100000C46002369460094019301F0D1F9002E7A
:10411000EAD02B883380E7E730B129B170B582B09F
:1041200022B90E2002B070BD0E20704790F82840D2
:10413000032C054618BF0F20F4D11E460C46002361
:1041400069460094019301F047FA002EEAD02B88CB
:104150003380E7E7F8B5044601F052FB94F82D30C0
:1041600033B12E4B1B78002B4FD1236B1B1A01E070
:104170004FF0FF3394F81021EAB1D4F8BC10091ABB
:104180008B4228BF0B46012A15D0D4F8D410091A47
:104190008B4228BF0B46022A0DD0D4F8EC10091A26
:1041A0008B4228BF0B46032A05D0D4F80421121AEB
:1041B000934228BF134665682D1A9D4213D20023EF
:1041C000237301F01FFB074601F014FB064678B984
:1041D000B5FBF7F1204607FB115101F0EFFA064657
:1041E000C0B93046F8BD5A1C12D100263046F8BD81
:1041F0000B480C4B0C49C01AC008000440F00100E9
:104200003246FDF7CBFF3046F8BD636B1B1AB1E7B2
:104210001D46D6E70248034B0449ECE7BC170020D3
:104220002CC704001CC70400302104006C210400CA
:104230002DE9F04F054689B001F0E2FA95F82D30EE
:104240008146C3B1864E337853B92C6B01F0DAFA4C
:10425000044001F0D7FA09EA0000844240F2DA8013
:104260006C6B01F0CFFA044001F0CCFA09EA0000CF
:10427000844240F2C68095F81031FBB1794B7A4AFE
:10428000A3EB02084FEAD8084FEA084848F00108B3
:104290002C46002705F13A0AD4F8BC6001F0B2FAC6
:1042A000064001F0AFFA09EA0000864212D995F8FB
:1042B00010310137BB4204F11804EDDC95F82830C9
:1042C00003F0FD03012B4ED02846FFF743FF09B052
:1042D000BDE8F08F94F8B06066BB20223146684696
:1042E0003BF066FE4FF0010B0C23D4F8B4008DF8C0
:1042F00000308DF804B000F055FAB4F8BA308DF8FB
:104300000500D4F8B400ADF8063000F04BFA0628EA
:104310006AD0072800F08480002878D03246B4F8AC
:10432000BA10284600F092F96946D5F814312846AB
:104330009847BCE7013E84F8B0604FF4FA5001F0B2
:1043400065FAB4F8B830C4F8BC00D4F8B4205146CB
:10435000284600F055FE0028A9D0024643494046B1
:10436000FDF71CFFA3E76C6801F04CFA044001F074
:1043700049FA09EA00008442A6D82B7C002B52D0CF
:10438000297B0029A0D195F82820012A0FD10223EA
:1043900085F82830202268463BF00AFE0A238DF873
:1043A00000306946D5F81431284698472B7C013BEC
:1043B0002B744FF4FA5001F029FA2B8B68606A696C
:1043C00005F13A01284600F01BFE00283FF47CAFBF
:1043D000254A244B25499B1ADB081B04024643F05F
:1043E0000100FDF7DBFE6FE75A461A21284600F070
:1043F0002DF995F82830052B96D1042385F828301F
:1044000092E700232846337000F0BAF833E75A46A3
:104410000421EBE701232846337000F07FF82AE7F8
:104420005A461C21E2E795F82830012B01D0032BD6
:1044300002D1042385F828306846202200213BF071
:10444000B7FD0C20012205238DF800008DF8053002
:1044500069468DF80420D5F814312846984733E78B
:10446000BC1700202CC704001CC70400FC2004005B
:1044700060B190F828300BB90F20704770B590F8F4
:104480002D6088B026B1112008B070BD0E20704795
:1044900004464FF4FA600D4601F0BEF901F0B6F99A
:1044A0001A4B206301224FF47A7084F82C6084F850
:1044B0002D2000FB05F01E705E7001F0A7F960630F
:1044C0002046FFF747FE28B920460021FFF7C4FC2D
:1044D0000020D9E70E4A0F4B0F499B1ADB081B043B
:1044E000024643F00100FDF759FE3146684620229E
:1044F0003BF05EFD082202238DF8043069468DF8FA
:104500000020D4F8143120469847DDE7C01700207A
:104510001CC704002CC70400BC21040070B5144B58
:104520001C7888B00CB108B070BD012605461E701D
:1045300000F068FD0028F6D00E4A0F4B0F499B1A79
:10454000DB081B04024643EA0600FDF727FE21466E
:10455000202268463BF02CFD08238DF80030694688
:104560008DF80460D5F814312846984708B070BD1E
:10457000C01700201CC704002CC70400BC21040085
:1045800070B5194B5D7888B0B5B990F82C6080F89B
:104590002D50012204465A7086B1294668462022D1
:1045A0003BF006FD08238DF8003069468DF8045075
:1045B000D4F814312046984708B070BD0A21FFF79F
:1045C0004BFC3146684620223BF0F2FC08220323D4
:1045D0008DF8043069468DF80020D4F81431204657
:1045E000984708B070BD00BFC0170020B0306422EB
:1045F00000213BF0DDBC00BFF8B590F81061042E3F
:1046000011D00D4607460FCD06EB460407EBC40458
:10461000B0340FC495E8030084E80300013687F83E
:1046200010610020F8BD064B06480749C01AC008B3
:10463000000440F00100FDF73FFD3046F8BD00BF2B
:104640001CC704002CC70400FC2104002DE9F8431A
:10465000054690F8100198B12B460024EAB1012AD2
:1046600009D1D3F8B4603778012F14BF012703278D
:10467000F65D8E4215D00134844203F11803EDD16A
:10468000344B35483549C01AC008000440F00100D9
:10469000FDF712FD0520BDE8F883B3F8BA608E423D
:1046A000E9D1042CECD004EB440605EBC606D6F8A1
:1046B000B400FCF743FD95F81071A74243DD04F107
:1046C000010808EB480C05EBCC0C0CF1B00CE646ED
:1046D000BEE80F00B0360FC69EE80300B84586E876
:1046E000030030DA04F1020909EB490E05EBCE0EA6
:1046F0000EF1B00EF046B8E80F0066460FC698E817
:104700000300B94586E803001DDA04F1030808EB4D
:10471000480605EBC606B036B446BCE80F00AEE866
:104720000F009CE8030047458EE803000BDD0434CE
:1047300004EB440405EBC404B0340FCC0FC694E87A
:10474000030086E80300013F85F810710020BDE8F2
:10475000F88300BF1CC704002CC7040020220400FB
:1047600070B490F8104194B100239AB1012A09D194
:10477000D0F8B4502E78012E0CBF03260126AD5D73
:104780008D420BD00133A34200F11800EDD104207B
:1047900070BC7047B0F8BA508D42F3D1184670BC67
:1047A000704700BF0378012B0CBF03230123C35CB8
:1047B000043BDBB2182B9ABF014AD05C082070473B
:1047C000502204002DE9F0411C461B78012B0CBF40
:1047D0000323012396B0E35CBDF87010054616462E
:1047E0001D2B00F21382DFE813F01E0011022300DC
:1047F000110211022D0043001102470011024B006B
:104800005F00AC00E9001102110211021102110255
:1048100006011102300111023F0162011102110271
:104820007F011102CD010824204616B0BDE8F081B9
:1048300090F82D30002B40F009820024204616B05D
:10484000BDE8F08190F828300026052B0B9600F08B
:104850000283C248C24BC349C01AC008000440F0DA
:104860000100FDF729FC0324204616B0BDE8F081C5
:1048700000F004FC0446D7E700F048FC0446D3E708
:104880000026009123460BAA0DF11E0108A8ADF8E1
:104890001E60ADF82060FEF7E1FD002840F0FA81CF
:1048A000AE48AF4BB049D7E716AA002702F83A7DC9
:1048B0002346009108A809A9ADF82070ADF824702E
:1048C000FEF702FE002800F0B9819DF81E60002E60
:1048D00000F08882012EA148A14B40F08182C01ACD
:1048E000C0080004A14940F00300FDF7E5FBBDF856
:1048F00024103A4628460DF13808FFF7A7FE404637
:10490000202239463BF054FB23788DF83C70012B74
:104910000CBF032301230C22E35C8DF83820043BF9
:10492000DBB2182B96BF924A0823D35C8DF83D303A
:104930000024ADF83E404146D5F81431284698474A
:1049400072E708A809AA0BAB002604910290019215
:10495000009303940DF11E030DF11D020DF11B01D7
:1049600007A8ADF81E6008968DF81B608DF81C60D6
:104970008DF81D60FEF7CEFC002800F057819DF8F1
:104980001B40002C40F08D820EA820220021BDF893
:10499000307005263BF00CFBBDF81E00099BADF8FE
:1049A000460000221593ADF850700EA98DF83860BE
:1049B0001392D5F814312846984735E716AA0027F0
:1049C00002F8387D2346009109A80BA9ADF82470A0
:1049D000ADF82C70FEF70EFD002800F033819DF835
:1049E0002060002E00F0DA81012E5C485C4B00F064
:1049F0009B8160491FE00027019100940DF11E0387
:104A00000BAA09A908A8ADF82470ADF82C708DF890
:104A10001E708DF82070FEF72FFF002800F00A812D
:104A20009DF81E60002E00F09781012E4B484C4BE4
:104A300000F07A815049C01AC0080004324640F0A4
:104A40000100FDF7ABFB0324EEE616A800260A469C
:104A500020F82C6D2146FEF79DFF002840F046818E
:104A60003E483F4B4549F7E6047B002C7FF4E5AE1A
:104A70000123032203730274806800F0C7FE09213A
:104A800068602846FFF7E8F995F82830012B7FF495
:104A9000D4AE21460EA820223BF08AFA09238DF8D5
:104AA00038300EA9D5F8143128469847BCE690F85E
:104AB0002840062C00F0DF80072C40F0438100F0F6
:104AC00099FE21462846FFF7C7F90EA820220021AB
:104AD0003BF06EFA02238DF838300EA9D5F8143168
:104AE0002846984700249FE616A800270A4640F863
:104AF0002C7D2146FEF7CEFB002800F093800B9E14
:104B0000002E00F06181012E1448154B40F01881F1
:104B1000C01AC00800041A4940F003000DF138081B
:104B2000FDF7CAFA2022394640463BF041FA237885
:104B30008DF83C70012B0CBF032301230C22E35C96
:104B40008DF83820043BDBB2182B96BF084A0823A7
:104B5000D35C002401221A214BE000BF2CC70400C3
:104B60001CC704006C2204004C230400A023040092
:104B700050220400B0240400302504006025040005
:104B8000E825040016A800270A4640F82C7D214697
:104B9000FEF7A0FB002845D00B9E002E00F0F2800F
:104BA000012EC948C94B40F0CB80C01AC008000490
:104BB000C74940F003000DF13808FDF77DFA2022C7
:104BC000394640463BF0F4F923788DF83C70012BD0
:104BD0000CBF032301230C22E35C8DF83820043B37
:104BE000DBB2182B96BFBB4A0823D35C00240122FA
:104BF0001C2128468DF83D30ADF83E40FFF726FDDC
:104C00004146D5F81431284698470DE6AF4BAE48DB
:104C1000B149C01AC008000440F00100FDF74CFA89
:104C2000062401E6A848A94BAC4915E6A648A74BBF
:104C3000AB4911E6A448A54BAA490DE6A248A34BEF
:104C4000A94909E6A048A14BA84905E60EA82022DB
:104C500000213BF0ADF9A3788DF83C30032201230D
:104C600085F82C300EA910968DF83820D5F814311F
:104C700028469847E1E5806800F0C8FD2146686055
:104C80002846FFF7E9F80EA8202200213BF090F912
:104C9000092320E73346BDF81E20BDF82010284622
:104CA00000F092FB09AF31460446082238463BF03B
:104CB0007FF9BDF820200B9BADF8282031460EA8C7
:104CC000202209933BF074F997E8030013AB072601
:104CD000BDF81E208DF8386083E80300ADF846204B
:104CE0000EA9D5F81431284698479DE53246BDF8FF
:104CF0002C102846FFF734FD042800F0DC803246F3
:104D0000BDF82C102846FFF7A1FC0EA82022314642
:104D10003BF04EF90D238DF838300EA9D5F814313B
:104D20002846344698477FE5C01AC00800047049F9
:104D300040F00300FDF7C0F93A46BDF82C10D9E564
:104D40006C4978E60821FFF787F80EA82022002199
:104D50003BF02EF90123BEE63246BDF82C10284662
:104D6000FFF7FEFC042800F0CF803246BDF82C107F
:104D70002846FFF76BFC0EA8202231463BF018F9BD
:104D80000B23C8E701221C212846FFF75FFC0EA871
:104D9000202231463BF00CF90F23BCE73246BDF828
:104DA0002C102846FFF7DCFC042800F0B5803246C2
:104DB000BDF82C102846FFF749FC0EA820223146EA
:104DC0003BF0F6F80423A6E701221A212846FFF754
:104DD0003DFC0EA8202231463BF0EAF80E239AE76C
:104DE000454928E63246BDF824102846FFF7B8FCAE
:104DF0000428044600F08C803246BDF824100BAF26
:104E00002846FFF723FC04EB4404314638460822C9
:104E10003BF0CEF805EBC4033146D3F8C0200B922B
:104E2000BDF82030ADF830300EA820223BF0C0F89D
:104E300097E8030013AB0624BDF824208DF8384012
:104E400083E80300ADF846200EA9D5F814312846B2
:104E500034469847E8E40A460BA82146FEF726F9AF
:104E600068B30B9F002F5BD0012F40F09580174B4C
:104E700015482249C01AC008000440F00300FDF79D
:104E80001BF90DF138083A4604212846FFF7DEFBEE
:104E90004046202231463BF08BF823788DF83C6069
:104EA00035E53346BDF81E20BDF83010284600F029
:104EB000C5FA044668E50448044B1149CCE40248AD
:104EC000024B1049C8E400BF2CC704001CC70400F3
:104ED000E82504005022040054260400B8250400EC
:104EE00030240400DC240400782304005C24040043
:104EF000A02304002426040004240400EC2204005F
:104F00008C250400902204003548364B3649A3E432
:104F10003348344B35499FE43148324B34499BE4A4
:104F2000012204212846FFF791FB17200F971097C5
:104F3000FCF7ECF80446E0B1394617223BF038F8AC
:104F4000B5F850202B4E05F1560120463BF00BF8EA
:104F5000B5F85010109A0E94009202310EAB89B23F
:104F60000CCB3046FEF7FAF880B288BB2046FCF73F
:104F7000E5F8B5F84E304FF47A7000FB03F0A86006
:104F800000F044FC68602846FFF7E4F8044680B16E
:104F90001348144B18495FE4124B11481749C01AC3
:104FA000C00800043A4640F00100FDF7F7F803247A
:104FB0003AE428460521FEF74FFF21460EA820229D
:104FC0003AF0F6FF0EA9D5F81431284698472BE49D
:104FD000032328836E6120462B74FCF7AFF8C8E7E3
:104FE0002CC704001CC7040004250400D8230400B7
:104FF00084240400C4170020BC22040020230400E1
:1050000000F0AABC2DE9F041804686B00320FCF7F1
:105010007DF8E0B1012203210446FEF70FFB87B2C1
:105020003FB907252046FCF789F8284606B0BDE8B9
:10503000F0810E4E0FCE01AD0FC533682B80404678
:105040003B46224601A900F087FC0546EAE7084BEB
:1050500008480949C01AC008000440F00100FDF7E3
:105060002BF80425284606B0BDE8F0818826040008
:105070001CC704002CC7040080270400F0B5B0F85A
:1050800054400334A4B289B006462046FCF73EF8EB
:1050900038B305AD07460C22002128463AF088FFB8
:1050A000B6F85430069306F18D02079295E8070092
:1050B00000238DE807001A4621463846FEF77EF8A1
:1050C00083B233B907243846FCF738F8204609B0D4
:1050D000F0BD3A4606F13A01304600F03DFC044688
:1050E000F1E7074B07480849C01AC008000440F020
:1050F0000100FCF7E1FF0424204609B0F0BD00BF29
:105100001CC704002CC7040024280400F0B5B0F824
:1051100052400234A4B287B005462046FBF7F6FFA2
:1051200030B303AF06460C22002138463AF040FF68
:10513000B5F85230049305F16D0E97E80C00214646
:10514000CDF800E03046CDF814E0FEF771F883B2F8
:1051500033B907243046FBF7F1FF204607B0F0BD16
:10516000324605F13A01284600F0F6FB0446F1E725
:10517000064B07480749C01AC008000440F0010068
:10518000FCF79AFF0424204607B0F0BD1CC70400BA
:105190002CC70400FC2704002DE9F0413F4D0646D2
:1051A0000FCD92B006AC0FC495E80300172284E837
:1051B000030000216846CDF820D03AF0F9FEB6F899
:1051C0005020089806F156013AF0CDFE96F84D10A1
:1051D000B6F84E2096F84C308DF82F101D20ADF803
:1051E0002C208DF82E30FBF791FFA0B306AA1D21CD
:1051F0008046FDF71BFF85B26DB92F460724404658
:10520000FBF79CFF1FB114B13846FBF797FF204610
:1052100012B0BDE8F0812846FBF778FF0746C0B121
:105220002A4641463AF09FFE002118220CA83AF087
:10523000BFFE02234FF4FA500D97ADF838508DF8A9
:10524000303000F0E3FA0CA90F903046FFF7D4F9A4
:1052500080B10424D3E7124B12481349C01AC00886
:10526000000440F00100FCF727FF0424204612B0A0
:10527000BDE8F0813046FEF76DFF30B130460122C7
:105280000421FFF7E3F90324B9E72B46424606F170
:105290003A01304600F060FB0446B0E79C2604006B
:1052A0001CC704002CC70400B42604002DE9F043F9
:1052B000941DA4B28DB00646204617468846FBF7DB
:1052C00025FF002857D00DF10C0905460C220021BE
:1052D00048463AF06DFE3388D8F8001005914FF635
:1052E000FF7293421DBF01339BB233800123CDF87F
:1052F00000902146002228460497FEF7F3F987B272
:105300007FB9B94607242846FBF718FFB9F1000F0B
:1053100003D014B14846FBF711FF20460DB0BDE89D
:10532000F0833846FBF7F2FE814610B33A46294631
:105330003AF019FE0021182206A83AF039FE02229E
:1053400033888DF818204FF4FA50ADF82230CDF89C
:105350001C90ADF8207000F059FA099098E803000D
:105360000CAB03E9030006A93046FFF745F90446F4
:1053700080B10424C7E7114B11481249C01AC00874
:10538000000440F00100FCF797FE042420460DB015
:10539000BDE8F0833046FEF7DDFE30B122463188AD
:1053A0003046FFF753F90324ADE73B462A4606F1A2
:1053B0003A01304600F0D0FA0446A4E71CC70400C6
:1053C0002CC70400582704002DE9F041804682B024
:1053D00007200C4616461F46FBF798FE80B1334661
:1053E0000097224607210546FEF7B8F983B2B3B904
:1053F00007242846FBF7A2FE204602B0BDE8F08154
:105400000B4B0C480C49C01AC008000440F00100C6
:10541000FCF752FE0424204602B0BDE8F0812A4683
:1054200008F13A01404600F097FA0446E1E700BF70
:105430001CC704002CC70400302704002DE9F041EC
:10544000804682B007200C4616461F46FBF75EFEDC
:1054500080B133460097224607210546FEF712F930
:1054600083B2B3B907242846FBF768FE204602B092
:10547000BDE8F0810B4B0C480C49C01AC008000471
:1054800040F00100FCF718FE0424204602B0BDE8FD
:10549000F0812A4608F13A01404600F05DFA0446E0
:1054A000E1E700BF1CC704002CC704000827040064
:1054B0002DE9F043541DA4B28DB006462046174690
:1054C0008846FBF723FE00285DD00DF10C09054648
:1054D0000C22002148463AF06BFD3388D8F80010C2
:1054E00004914FF6FF7293421ABF01339BB201231E
:1054F0004FF0000018BF33808DF80C008DE80802D3
:1055000021460123002228460597FEF757F987B266
:105510007FB9B94607242846FBF710FEB9F1000F02
:1055200003D014B14846FBF709FE20460DB0BDE894
:10553000F0833846FBF7EAFD814610B33A46294628
:105540003AF011FD0021182206A83AF031FD02229E
:1055500033888DF818204FF4FA50ADF82230CDF88A
:105560001C90ADF8207000F051F9099098E8030004
:105570000CAB03E9030006A93046FFF73DF80446EB
:1055800080B10424C7E7114B11481249C01AC00862
:10559000000440F00100FCF78FFD042420460DB00C
:1055A000BDE8F0833046FEF7D5FD30B122463188A4
:1055B0003046FFF74BF80324ADE73B462A4606F199
:1055C0003A01304600F0C8F90446A4E71CC70400BD
:1055D0002CC70400A82704002DE9F043541DA4B2F1
:1055E0008BB00646204617468846FBF78FFD0028FD
:1055F00059D005460C22002101A83AF0D9FC328886
:10560000D8F8001002914FF6FF739A4218BF01328A
:105610004FF0000018BF92B28DF8040014BF328022
:10562000012201AB214628460397FEF761F987B2B4
:105630007FB9B94607242846FBF780FDB9F1000F72
:1056400003D014B14846FBF779FD20460BB0BDE806
:10565000F0833846FBF75AFD814610B33A46294697
:105660003AF081FC0021182204A83AF0A1FC0222A1
:1056700033888DF810204FF4FA50ADF81A30CDF879
:105680001490ADF8187000F0C1F8079098E8030086
:105690000AAB03E9030004A93046FEF7ADFF044658
:1056A00080B10424C7E7114B11481249C01AC00841
:1056B000000440F00100FCF7FFFC042420460BB07E
:1056C000BDE8F0833046FEF745FD30B12246318813
:1056D0003046FEF7BBFF0324ADE73B462A4606F102
:1056E0003A01304600F038F90446A4E71CC704002C
:1056F0002CC70400D02704002DE9F0410646E1B193
:105700004FF47A7303FB01F304258360284601F10B
:105710001804FBF7FBFC24B24FF006080746B8B1AB
:1057200022462946FDF7E2FC83B2FBB93846FBF777
:1057300005FD07242046BDE8F08102252846FBF739
:10574000E5FC4FF007084FF0FF3407460028E7D18B
:105750000F4B10481049C01AC008000440F0010067
:105760000424FCF7A9FC2046BDE8F0813A4606F186
:105770003A01304600F0F0F804463846FBF7DEFC0C
:10578000002CD7D186F828802046BDE8F08100BFE4
:105790001CC704002CC70400DC260400FEF748BD2B
:1057A00008B5FBF767FB034A03480021BDE8084042
:1057B000FBF7B4BB9D5700004C280400F8B54FF42C
:1057C00000454FF4FA760027E5FB016704464FF4E5
:1057D0007A720023304639463BF0BCFF052801466B
:1057E000224638BF05210248BDE8F840FBF7A8BBB8
:1057F000E01700200148FBF7F3BB00BFE0170020D3
:105800002EF051BD4FF0FF30704700BF10B5044679
:105810002EF049FD204410BD10B504462FF01AFBB0
:10582000B0FBF4F303FB140080B210BDF0B589B0F7
:10583000138CADF80A300D46074602F1100103A89B
:1058400010223AF090FB4BF659032846ADF81C3075
:1058500005F012FF0446284605F012FF241AA4B2F0
:105860002046FBF753FC40B30646284605F008FFE8
:10587000234601463246284605F006FFA0420ED0D8
:105880001448154B1549C01AC008000440F0010027
:10589000FCF712FC3046FBF751FC09B0F0BD00905C
:1058A00003AA384633460DF10A01FEF78BFF0028A4
:1058B000F0D00848084B0A49E5E7074B0548094975
:1058C000C01AC008000440F00100FCF7F5FB09B065
:1058D000F0BD00BF2CC704001CC70400FC28040056
:1058E000D02804002429040070B5154C86B0054664
:1058F00022600E461422002101A83AF059FB2B46E3
:105900002068104A104906F0EDF958B901A90E486F
:10591000ADF8146006F0FBF900280CBF002003204E
:1059200006B070BD094B0A480A49C01AC0080004F5
:1059300040F00100FCF7C0FB032006B070BD00BFC3
:10594000001800202D580000041800201CC7040077
:105950002CC704005028040009B302B3F0B51E465A
:10596000244B8DB00D4618680121144606F0AAF9A3
:10597000074670B33246214605F084FE88B11E48C2
:105980001E4B1F49C01AC008000440F00100FCF77C
:1059900093FB384605F06EFE03200DB0F0BD0E20DF
:1059A000704701462C2201A83AF002FB01222B8A03
:1059B0008DF828202946102205A8ADF826303AF0A7
:1059C000D2FA01AA39460F4806F0A5F968B90DB018
:1059D000F0BD0A4B08480C49C01AC008000440F04A
:1059E0000100FCF769FB0420F1E70348034B07497A
:1059F000C8E700BF001800202CC704001CC7040023
:105A0000902804000418002070280400B428040022
:105A100070B5002182B0064608462FF065FA434C67
:105A2000434D05F093FC434B2860E41AE40805F06D
:105A30009BFC240444F0030402463F492046FCF743
:105A4000ADFB286805F09EFF3C4902462046FCF766
:105A5000A5FB286805F01CFC10B9B378002B4FD1CA
:105A60000122002101A83AF0A3FA3378012B9DF816
:105A700004304FD043F00F038DF804309DF804102C
:105A8000286805F047FFB168002935D173780BB15C
:105A900002B070BD0121286805F06AFC286805F095
:105AA000F7FB10B9B378002BF2D00121286806F07B
:105AB00007F823492046FCF7FFFA286805F0D9FCCF
:105AC000204902462046FCF769FB286805F00CFDDA
:105AD0001D4902462046FCF761FB286805F0F2FEEE
