:1000000000000420E1020000090300000B030000CF
:100010000D0300000F0300001103000000000000AA
:100020000000000000000000000000008504000047
:100030001503000000000000A504000019030000E3
:1000400091400000A995030071750300D5DD030000
:100050001B0300001B030000B54500001B0300004C
:100060001B0300001B0300001B0300001B03000018
:100070001B030000D97103001B0300001B030000D9
:100080001B030000AD0500001B0300001B03000064
:100090001B0300001B0300001B0300001B030000E8
:1000A0001B0300001B0300001B0300001B030000D8
:1000B0001B0300001B030000000000000000000004
:1000C0001B0300001B0300001B0300001B030000B8
:1000D0000D6903001B0300001B0300001B0300004D
:1000E0001B0300001B030000451504000000000076
:1000F000000000001B030000000000001B030000C4
:1001000000000000000000000000000000000000EF
:1001100000000000000000000000000000000000DF
:1001200000000000000000000000000000000000CF
:1001300000000000000000000000000000000000BF
:1001400000000000000000000000000000000000AF
:10015000000000000000000000000000000000009F
:10016000000000000000000000000000000000008F
:10017000000000000000000000000000000000007F
:10018000000000000000000000000000000000006F
:10019000000000000000000000000000000000005F
:1001A000000000000000000000000000000000004F
:1001B000000000000000000000000000000000003F
:1001C000000000000000000000000000000000002F
:1001D000000000000000000000000000000000001F
:1001E000000000000000000000000000000000000F
:1001F00000000000000000000000000000000000FF
:1002000010B5054C237833B9044B13B10448AFF350
:1002100000800123237010BD580200200000000060
:10022000D0EC04000C4B43B10C480D4910B5AFF3B2
:1002300000800C48036823B910BD0A48036833B92D
:100240007047094B002BF7D0BDE810401847064B0C
:10025000002BF5D0184700BF00000000D0EC0400D0
:100260005C0200205002002000000000154B002B13
:1002700008BF134B9D46A3F5803A00218B460F46DD
:100280001348144A121A42F0E7F80F4B002B00D023
:1002900098470E4B002B00D0984700200021040007
:1002A0000D000D48002802D00C48AFF3008042F04A
:1002B0004FF82000290004F01BFF42F023F800BF94
:1002C0000000080000000420000000000000000002
:1002D00058020020B02301200000000000000000B0
:1002E0000649074A074B9B1A03DD043BC858D05008
:1002F000FBDC05F06BFEFFF7B9FF000030ED0400FA
:100300000000002058020020FEE7FEE7FEE7FEE7BF
:10031000FEE7FEE7FEE7FEE7FEE7FEE7C20770B492
:100320000ED483070AD54FF0A0430C22C3F82C2724
:10033000C3F83027C3F86027C3F8642770BC704740
:100340004FF0A04303224FF400564FF480454FF482
:1003500000444FF48031C3F83427C3F83827C3F87A
:100360003C27C3F84027C3F80865C3F80855C3F80D
:100370000845C3F80815D4E738B5430704461CBF41
:1003800020F00704083401F00DF90E4A13689BB100
:100390000D4A156843F2F7712C448C4207D8A542E8
:1003A00005D21D44146001F0ADF9284638BD002582
:1003B00001F0A8F9284638BD044B23F00703136069
:1003C000E6E700BF74020020783A00208002002097
:1003D000704700BF00F108034FF0FF310022816039
:1003E00002604360C3600361704700BF0023036184
:1003F000704700BF43684B609A688A609A68516092
:1004000099600861036801330360704730B40D6878
:100410006B1C11D000F1080200E01A4653681C68FA
:10042000A542FAD24B6099608A6051600861036806
:100430000133036030BC704702695368F2E700BFC4
:1004400042688168036991608268416851605A68B6
:10045000904204BF82685A60002202611A68013A21
:100460001A601868704700BF0548006880F3088864
:1004700062B661B6BFF34F8FBFF36F8F00DF00BF6F
:1004800000000000064B19680868B0E8F04F80F3E0
:100490000988BFF36F8F4FF0000080F31188704719
:1004A000803A0020EFF30980BFF36F8F144B1A6876
:1004B0001EF0100F08BF20ED108A20E9F04F1060E9
:1004C0004DF8043D4FF0400080F31188BFF34F8F8B
:1004D000BFF36F8F01F06CFA4FF0000080F31188CA
:1004E00008BC19680868B0E8F04F1EF0100F08BF8C
:1004F000B0EC108A80F30988BFF36F8F704700BF9C
:10050000803A0020402383F31188FEE730B46FF077
:1005100002034FF08075074C40F8081C40F8202C6F
:1005200040F8045C40F80C4C40F8243C30BC4438A3
:10053000704700BF050500000F4C08B5E02384F8A4
:10054000223000F077F80D4B0D4A00211960D4F8E5
:10055000883043F47003C4F88830536843F0404354
:100560005360236943F010032361FFF77DFF4023AD
:1005700083F31188FEE700BF00ED00E07C3A002025
:1005800030EF00E0402383F31188024A13680133FF
:10059000136070477C3A0020034A1368013B1360E4
:1005A0000BB983F3118870477C3A002070B51D4B5E
:1005B00000221A6082B01B680193019BEFF3118641
:1005C000402383F311881849184BD1F804551A6059
:1005D0001B680093009B00F0EDFF2D1A25F07F456E
:1005E000012D10D901F060FB022819D000F0F6FFB0
:1005F000054625B10E4B4FF080525A6040BF86F33E
:10060000118802B070BD6C1E002DF8D0002500E0EE
:100610001C4600F0E3FF631E0543002CF8D1E8E719
:100620006C1EF3E740110140001001400011014031
:1006300000ED00E0F8B5002003F0D6FB0A4E0B4BAE
:100640000B4901221F270225E0244FF40030C3F894
:100650000875C3F8042332601A60C3F8445381F864
:1006600011430860F8BD00BF0810014000100140B0
:1006700000E100E0F0B5044685B072B6284DD5F82B
:10068000046501F0F7FA002841D02648264B844241
:1006900028BF0446321922F07F4201200021C5F80C
:1006A0000803C5F8402519601B6801934FF4803397
:1006B000019AC5F80433BFF34F8F3CB11B4B20BFE9
:1006C000D3F80011D3F804210A43F8D0144A16488D
:1006D000174B164D00214FF48037C2F808730160A4
:1006E00000680390039819601B6802930123029924
:1006F000C2F80433D2F804359B1B23F07F40A0429C
:100700004FF4003328BF2046C5F8803110B962B6D7
:1007100005B0F0BD00F05AFF62B605B0F0BD00BFF5
:1007200000100140FDFFFF004011014000E100E02A
:100730000011014070B5064600FB01F048300D463F
:10074000FFF71AFE044618B325B300F148032360EF
:10075000E6632564FFF716FF236CE16B2268A26055
:1007600001FB03F1CB1A134400200A44FF21A063CC
:10077000E36084F84410626004F1100084F84510CE
:10078000FFF728FE04F12400FFF724FEFFF704FF23
:10079000204670BD0346DAE72DE9F04F044685B0E8
:1007A0001D4601928846FFF7EDFEA26BE36BB34F47
:1007B0004FF000099A424E46C0F08B80022D00F0A7
:1007C00013810198002800F07881B9F1000F00F042
:1007D0000781FFF7E1FE00F0E5FEFFF7D3FE94F896
:1007E0004430FF2B08BF84F8446094F84530FF2B59
:1007F00008BF84F84560FFF7CFFE01A902A801F009
:10080000FBF9002840F00B81FFF7BCFEA26BE36B05
:100810009A427FD0FFF7C0FEFFF7B4FE94F8453050
:100820004FFA83FABAF1000F1ADD636AC3B104F11B
:10083000240907E00AF1FF33DBB24FFA83FA7BB1F8
:10084000636A6BB1484601F07BF90028F2D001F0F1
:100850000BFA0AF1FF33DBB24FFA83FA002BEFD128
:10086000FF2384F84530FFF797FEFFF78BFE94F8DF
:1008700044304FFA83FABAF1000F1ADD2369C3B18D
:1008800004F1100907E00AF1FF33DBB24FFA83FAF3
:100890007BB123696BB1484601F052F90028F2D0D0
:1008A00001F0E2F90AF1FF33DBB24FFA83FA002BD1
:1008B000EFD1FF2384F84430FFF76EFE00F022FFF3
:1008C000FFF760FEA26BE36B9A424FF00109BFF4A1
:1008D00075AF226CA66B002A40F0F6802568002DCB
:1008E00000F003810136A663636A6BB104F1240052
:1008F00001F026F940B1614B4FF080525A6040BF81
:10090000BFF34F8FBFF36F8FFFF746FE012005B097
:10091000BDE8F08F04F11009FFF73EFE484601994B
:1009200001F072F8FFF72EFE94F845A04FFA8AFA0C
:10093000BAF1000F1CDD636AD3B104F1240B08E0A7
:100940000AF1FF3A5FFA8AF34FFA83FA83B1636AD6
:1009500073B1584601F0F4F80028F1D00AF1FF3ADB
:1009600001F082F95FFA8AF34FFA83FA002BEED195
:10097000FF2384F84530FFF70FFEFFF703FE94F8DE
:1009800044304FFA83FABAF1000F06DC15E00AF1A1
:10099000FF33DBB24FFA83FA7BB123696BB1484670
:1009A00001F0CEF80028F2D001F05EF90AF1FF3331
:1009B000DBB24FFA83FA002BEFD1FF2384F84430E7
:1009C000FFF7EAFD00F09EFE00287FF479AF4FF0BC
:1009D00080537B6040BFBFF34F8FBFF36F8F6FE7D4
:1009E00002A801F0FDF8F4E6226CA66B002A3FF4A1
:1009F00075AF4146E06841F00AFD236CE26821686A
:100A00005B421A448A42E26005D262681344E360A2
:100A1000022D7FF467AF002E08BF012663E7FFF7C2
:100A2000B1FD94F845506DB2002D16DD636AA3B197
:100A300004F1240605E0013DEBB25DB26BB1636ADF
:100A40005BB1304601F07CF80028F4D0013D01F0A4
:100A50000BF9EBB25DB2002BF1D1FF2384F84530E6
:100A6000FFF79AFDFFF78EFD94F844506DB2002D0C
:100A700018DD2369B3B104F1100607E000ED00E0D2
:100A8000013DEBB25DB26BB123695BB1304601F061
:100A900057F80028F4D0013D01F0E6F8EBB25DB262
:100AA000002BF1D1FF2384F84430FFF775FD00F0EF
:100AB00029FE002005B0BDE8F08F0090FFF76CFD27
:100AC000009805B0BDE8F08F4146E5B9A06841F057
:100AD0009EFCA368216C62680B449342A360FFF400
:100AE00001AF2368A3600136FDE66068013601F0BE
:100AF000EBF8A663636A6560002B7FF4F7AE00280D
:100B00007FF4F9AE00E7E06841F081FC236CE26815
:100B100021685B421A448A42E260BFF479AF74E70D
:100B20002DE9F041044682B017468E46EFF3118658
:100B3000402282F31188806BE26B904221D3022B1A
:100B400005D0002086F3118802B0BDE8F08194F84A
:100B50004550226CD4F838806DB252BB2368002B0C
:100B60004ED008F101086B1CC4F838803AD001352A
:100B70006DB284F84550012086F3118802B0BDE8BB
:100B8000F08194F84550226CD4F838806DB2002A78
:100B9000E4D073B9A06841F03AFCA368216C6268A4
:100BA0000B449342A360DCD32368A36008F10108DF
:100BB000D9E77146E068019341F029FC206CE268B6
:100BC0002168019B404202448A42E26002D262688C
:100BD0001044E060022BC4D1B8F1000F08BF4FF001
:100BE0000108C0E7636A002BC5D004F1240000F0BF
:100BF000A7FF0028BFD0002FBDD001203860A1E79B
:100C00006068019301F060F8019B636008F10108DE
:100C1000A9E700BF2DE9F047044684B08A46019257
:100C2000FFF7B0FCA36BA44E00273D46002B40F01D
:100C3000EC80019B002B00F05F81002F00F0FF8013
:100C4000FFF7AAFC00F0AEFCFFF79CFC94F84430E0
:100C5000FF2B08BF84F8445094F84530FF2B08BFA1
:100C600084F84550FFF798FC01A902A800F0C4FFE2
:100C7000002868D1FFF786FCA36B002B40F0E380CF
:100C800004F12409FFF788FC4846019900F0BCFEF6
:100C9000FFF778FC94F845304FFA83F8B8F1000F6D
:100CA00006DC15E008F1FF33DBB24FFA83F87BB1C5
:100CB000636A6BB1484600F043FF0028F2D000F0B1
:100CC000D3FF08F1FF33DBB24FFA83F8002BEFD1EB
:100CD000FF2384F84530FFF75FFCFFF753FC94F8DF
:100CE00044304FFA83F8B8F1000F1ADD2369C3B11D
:100CF00004F1100907E008F1FF33DBB24FFA83F883
:100D00007BB123696BB1484600F01AFF0028F2D08E
:100D100000F0AAFF08F1FF33DBB24FFA83F8002B93
:100D2000EFD1FF2384F84430FFF736FC00F0EAFCF3
:100D3000002863D14FF08053736040BFBFF34F8FE3
:100D4000BFF36F8F5AE0FFF71DFC94F845304FFA60
:100D500083F8B8F1000F1ADD636AC3B104F1240906
:100D600007E008F1FF33DBB24FFA83F87BB1636A27
:100D70006BB1484600F0E4FE0028F2D000F074FFAA
:100D800008F1FF33DBB24FFA83F8002BEFD1FF23DA
:100D900084F84530FFF700FCFFF7F4FB94F844308B
:100DA0004FFA83F8B8F1000F1ADD2369C3B104F1DB
:100DB000100907E008F1FF33DBB24FFA83F87BB18B
:100DC00023696BB1484600F0BBFE0028F2D000F06A
:100DD0004BFF08F1FF33DBB24FFA83F8002BEFD162
:100DE000FF2384F84430FFF7D7FB00F08BFCFFF7BC
:100DF000C9FBA36B002B7FD0FFF7CEFBFFF7C2FB35
:100E0000A36B0127002B3FF414AF226C62B1E168A1
:100E10006068009311448142E16024BF2168E16071
:100E2000504641F0F4FA009B013BA3632369002B79
:100E300068D1FFF7B1FB012004B0BDE8F08702A83C
:100E400000F0CEFEFCE6FFF7A7FBFFF79BFB94F854
:100E500045304FFA83F8B8F1000F1ADD636AC3B169
:100E600004F1240907E008F1FF33DBB24FFA83F8FD
:100E70007BB1636A6BB1484600F062FE0028F2D095
:100E800000F0F2FE08F1FF33DBB24FFA83F8002BDB
:100E9000EFD1FF2384F84530FFF77EFBFFF772FBAD
:100EA00094F844304FFA83F8B8F1000F1CDD236941
:100EB000D3B104F1100909E000ED00E008F1FF33BF
:100EC000DBB24FFA83F87BB123696BB1484600F07F
:100ED00037FE0028F2D000F0C7FE08F1FF33DBB286
:100EE0004FFA83F8002BEFD1FF2384F84430FFF74B
:100EF00053FB00F007FC81E7FFF74EFB002004B036
:100F0000BDE8F08704F1100000F01AFE002890D030
:100F1000044B4FF080525A6040BFBFF34F8FBFF376
:100F20006F8F86E700ED00E0074B1A681AB19A68E8
:100F300002B17047012210B403EBC20443F832102F
:100F400060605DF8044BF4E73402012070B505469B
:100F50000C461646FFF716FB95F84430FF2B04BFEE
:100F6000002385F8443095F84530FF2B04BF00235B
:100F700085F84530FFF710FBAB6B2BB932462146A5
:100F800005F1240000F088FDFFF7FCFA95F84540D4
:100F900064B2002C16DD6B6AA3B105F1240605E0EE
:100FA000013CE3B25CB26BB16B6A5BB1304600F0FE
:100FB000C7FD0028F4D0013C00F056FEE3B25CB25D
:100FC000002BF1D1FF2385F84530FFF7E5FAFFF755
:100FD000D9FA95F8444064B2002C16DD2B69A3B110
:100FE00005F1100605E0013CE3B25CB26BB12B6980
:100FF0005BB1304600F0A4FD0028F4D0013C00F0C5
:1010000033FEE3B25CB2002BF1D1FF2385F844300C
:10101000BDE87040FFF7C0BA2DE9F84F95000746CC
:101020002846894698460B9EFFF7A6F9002800F04F
:10103000938082464820FFF79FF90446002800F07D
:101040009780C0F830A02A465046A52141F004FA06
:1010500099F80020236B84F83420043D99F800208F
:101060001D4425F0070A52B199F8013084F8353053
:1010700099F801301BB199F8023084F836300A9D96
:10108000022D28BF02254FF0000B04F10409E56290
:10109000A563484684F837B0C4F83CB0FFF7A6F91A
:1010A000C5F1030504F11800FFF7A0F9C4F840B03A
:1010B000A561246184F844B06462424639465046D2
:1010C000FFF724FA206006B13460FFF75BFA3D4A6F
:1010D0003D4F1368013313603B68002B40D0DFF8AD
:1010E0001C81D8F800306BB3E36A384ADFF810E1AE
:1010F0001668DEF800C0364801252E44166005FA51
:1011000003F203EB830342EA0C0200EB830049463F
:10111000CEF80020FFF76EF9FFF73EFAD8F800305E
:10112000BBB13A68E36AD26A9A4212D2294B4FF0B5
:1011300080525A6040BFBFF34F8FBFF36F8F284676
:10114000BDE8F88F3A68E36AD26A9A4298BF3C6079
:10115000CBE72846BDE8F88F4FF0FF30BDE8F88FA9
:101160003C601368012B0AD0E36ADFF89080BCE78B
:101170005046FFF72DF94FF0FF30BDE8F88F1448C7
:10118000154E164DDFF87480FFF724F91448FFF769
:1011900021F91448FFF71EF93046FFF71BF92846DE
:1011A000FFF718F91048FFF715F91048FFF712F983
:1011B0000F48FFF70FF90F4B0F4A1E60E36A1560E7
:1011C00093E700BFC83A0020803A0020D83A0020B8
:1011D0008C3A002000ED00E0E03A0020F43A0020D4
:1011E000A03A0020B43A0020143B0020403B0020ED
:1011F0002C3B0020843A0020883A0020283B002025
:10120000DC3A002070B504463E4EFFF7BBF9002CD7
:101210005DD0251D2846FFF713F930B9E26A3A4937
:1012200002EB82039B00CB58CBB1A36A1BB104F144
:101230001800FFF705F929463448354DFFF7DAF86D
:1012400094F84430012B04BF002384F84430FFF7A6
:10125000A3F92B6863B933689C4218D070BD2D4840
:101260000121036801FA02F223EA02020260DCE7CC
:10127000FFF788F9284B1A681268BAB9274B4FF064
:10128000FF321A60FFF788F933689C42E6D12B6879
:101290009BB91E49224A09681268914230D0214BFD
:1012A0001B68B3B1204B01221A6070BD1A681B4B3A
:1012B000D268D26852681A60E4E71C4B4FF0805243
:1012C0005A6040BFBFF34F8FBFF36F8F70BD34685C
:1012D0009FE715490F4A0B6013680B4AB3FA83F373
:1012E000C3F11F0303EB83039B00D018083341684D
:1012F000496841601344994204BF49684160CB6822
:10130000336070BD803A00208C3A00202C3B0020D6
:10131000283B0020DC3A0020843A00200C3B0020CF
:10132000C83A0020D43A0020583B002000ED00E0ED
:1013300000283DD0F8B51F4D2B68984237D00446A1
:10134000FFF720F91C4B62699A4203D0BDE8F840D0
:10135000FFF722B9A36A194A9342F7D0002BF5D1BF
:10136000271D174E3846FFF76BF8E26AD6F800E003
:1013700014480123934002EB820243EA0E0300EB80
:10138000820039463360FFF735F82B68E26ADB6A82
:101390009A42DBD30C4B4FF080525A6040BFBFF3F0
:1013A0004F8FBFF36F8FBDE8F840FFF7F5B8F8BD7A
:1013B000704700BF803A00202C3B0020143B0020E7
:1013C000DC3A00208C3A002000ED00E02DE9F843E3
:1013D000F020FEF7D1FF002800F084800546482069
:1013E000FEF7CAFF0446002800F08C800563F02257
:1013F0002846A52141F030F8206B564E00254921A2
:1014000044224C2304F1040884F8341084F8352075
:1014100084F8363000F1EC0784F837504046E56236
:10142000A563E563FEF7E2FF04F11800FEF7DEFFB7
:1014300027F0070703232A462564A361464984F859
:101440004450384624616462FFF760F8434B2060E3
:101450001C60FFF797F8424A136801331360336842
:10146000002B48D03F4F3B68002B3DD0E36A3E4AFB
:10147000DFF828E11568DEF800C03C48013515604A
:1014800001229A4003EB830342EA0C0200EB830043
:101490004146CEF80020FEF7ADFFFFF77DF83B6830
:1014A0006BB13268E36AD26A9A4208D2304B4FF08D
:1014B00080525A6040BFBFF34F8FBFF36F8F00F071
:1014C00073FD01280ED1402383F31188294B2A494B
:1014D0004FF0FF3400220C6038601A60BDE8F8431A
:1014E000FFF72AB8BDE8F8833268E36AD26A9A4205
:1014F00098BF3460BBE734601368012B07D0E36A00
:10150000184FB4E72846BDE8F843FEF761BF174817
:10151000DFF88C90194D134FFEF75CFF1848FEF76B
:1015200059FF1848FEF756FF4846FEF753FF284676
:10153000FEF750FF1448FEF74DFF1448FEF74AFF30
:101540001348FEF747FF134B134AC3F80090E36AB2
:1015500015608CE7803A0020BD180000083B002091
:10156000C83A0020283B0020D83A00208C3A0020BE
:1015700000ED00E0543B00200C3B0020F43A00203A
:10158000A03A0020B43A0020143B0020403B002049
:101590002C3B0020843A0020883A0020DC3A0020CE
:1015A000E03A0020024A136801331360704700BF1D
:1015B000D43A0020014B1868704700BF543B00200C
:1015C000014B1868704700BF543B0020024A136863
:1015D00018441060704700BF543B00202DE9F04FC5
:1015E0003D4B1B6883B0002B43D13C4B1F68013738
:1015F0001F60002F4BD03A4B01931B689F425DD375
:10160000384EDFF8F480DFF8F4A0DFF8F49000251E
:1016100026E03368DB68DC68636804F1040B9F42F2
:10162000584656D3FEF70CFFA36A04F118000BB11D
:10163000FEF706FFE06AD8F800200123834000EBA4
:101640008000134359460AEB8000C8F80030FEF7CB
:10165000D1FED9F80030E26ADB6A9A4228BF012540
:1016600033681B68002BD4D1019A4FF0FF3313600D
:1016700004E01D4A13680133136000251B4B1B68EF
:10168000002B18BF0125284603B0BDE8F08F154E8A
:10169000174B3168174A18683060196013680133B6
:1016A000136033681B685BB90D4B01931A464FF00A
:1016B000FF33136013461B689F42A1D20025DDE76C
:1016C0003368074ADB680192DB685B681360134686
:1016D00093E7019A1360D1E7D43A0020543B0020ED
:1016E0000C3B0020843A0020D03A0020583B0020D8
:1016F000883A0020103B0020DC3A00208C3A002081
:10170000803A00202DE9F84FFEF73CFF394B1A686C
:10171000013A1A601B68002B5ED1374A1268002A12
:101720005AD09A46DFF8EC90DFF8ECB0334EDFF891
:10173000EC80334F22E0DBF80C30D3F80CA00AF138
:1017400004040AF11800FEF77BFE2046FEF778FE3F
:10175000DAF82C00326805FA00F300EB800013433E
:10176000214608EB80003360FEF744FE3B68DAF860
:101770002C20DB6A9A4228BFC9F80050DBF8003001
:101780000125002BD7D1BAF1000F07D01D4B1A68E5
:1017900012683ABB1C4B4FF0FF321A601B4E346884
:1017A00044B10125FFF71AFF08B1C9F80050013C08
:1017B000F8D13460D9F8003073B1154B4FF0805236
:1017C0005A6040BFBFF34F8FBFF36F8F0124FEF706
:1017D000E3FE2046BDE8F88F0024FEF7DDFE20463C
:1017E000BDE8F88F1A68084BD268D26852681A6050
:1017F000D4E700BFD43A0020C83A0020DC3A0020E9
:10180000803A0020843A00200C3B0020D03A00208F
:1018100000ED00E0583B0020143B00208C3A0020F3
:1018200070B548B91D4B4FF080525A6040BFBFF3AE
:101830004F8FBFF36F8F70BD194A1A4913681A4D45
:101840000133136004460E6828680430FEF7F8FD83
:1018500040B92B681549D86A0B680122824023EAF7
:1018600002030B6034442B68A6425C600FD8104B17
:10187000186829680431FEF7C9FD0E4B1A689442B6
:1018800038BF1C60FFF73EFF0028CBD070BD0A4B6D
:10189000186829680431FEF7B9FDF3E700ED00E0B0
:1018A000D43A0020543B0020803A0020DC3A00204B
:1018B000843A00200C3B0020883A00202DE9F84FA4
:1018C000314C324E324DDFF8DC90DFF8DC80DFF84F
:1018D000DCB04FF0805A14E0FEF754FEF368DF6886
:1018E000381DFEF7ADFD2B68013B2B602368013BE3
:1018F0002360FEF751FE386BFEF76AFD3846FEF7AF
:1019000067FD2368002BE7D1224B1B68012B06D90A
:10191000CBF804A040BFBFF34F8FBFF36F8F03F02E
:10192000E5FBD9F80020D8F80030DB6A002BE8D1BD
:10193000184B1B68012BE4D8012AE2D8164B174A32
:101940001B6812689B1A012BDBD9154B144A1B68C4
:1019500001331360D9F80020D8F80030DB6A1BB9D6
:101960000C4B1B68012B02D9FFF7CCFEC9E7012AFB
:10197000FAD8094B1868094B1B68C01A0128F3D91B
:10198000FEF778FEF0E700BFCC3A0020403B002095
:10199000C83A00208C3A00200C3B0020543B002029
:1019A000D43A0020DC3A0020803A002000ED00E02C
:1019B000104B1B68CBB91049104A0B601368104AD2
:1019C000B3FA83F3C3F11F0303EB83039B00D01827
:1019D00008334168496841601344994204BF49682B
:1019E0004160084BCA681A607047034B01221A60B5
:1019F000704700BFD43A0020583B0020DC3A00205A
:101A00008C3A0020803A002070B51C4D2B680C46A3
:101A100003F11801FEF7FAFC194B1E682868043020
:101A2000FEF70EFD40B92B681649D86A0B680122F3
:101A3000824023EA02030B60631C18D034442B68F5
:101A4000A6425C600BD8104B186829680431FEF779
:101A5000DDFC0E4B1A68944238BF1C6070BD0C4B05
:101A600018682968BDE870400431FEF7CFBC2968CA
:101A700008480431BDE87040FEF7BCBC803A002045
:101A8000543B0020DC3A0020843A00200C3B00202C
:101A9000883A00202C3B0020F8B5224D2B680C46DC
:101AA00003F118011746FEF7A5FC1F4B1E682868B6
:101AB00004304FB3FEF7C4FCF8B94FF0FF342B6885
:101AC0001A49D86A0B680122824023EA02030B609C
:101AD000631C10D034442B68B4425C6019D3144B9F
:101AE000186829680431FEF791FC124B1A68944279
:101AF00017D21C60F8BD002FECD029680E480431C5
:101B0000BDE8F840FEF776BCFEF79AFC0028DFD16E
:101B1000D5E70A4B18682968BDE8F8400431FEF79C
:101B200075BCF8BD803A0020543B0020DC3A002010
:101B3000843A00200C3B00202C3B0020883A0020F7
:101B4000F8B5C368DC6804F118052846FEF778FC90
:101B50001B4B1B68002B2DD1261D1A4D3046FEF75E
:101B60006FFCE26A2F6818480123934002EB82025F
:101B70003B43314600EB82002B60FEF73BFC134BEE
:101B8000E26A1B68DB6A9A4282BF114B012018602F
:101B9000104B1A68126898BF002032B11A680E4BB9
:101BA000D268D26852681A60F8BD0B4B4FF0FF3212
:101BB0001A60F8BD29460948FEF71CFCDFE700BFA4
:101BC000D43A0020DC3A00208C3A0020803A0020F1
:101BD000583B0020843A00200C3B0020143B00209E
:101BE000034A044B12681B6880E80C00704700BF72
:101BF000103B0020543B0020F8B50D460446FEF78C
:101C0000C1FC2A681649501C0B6824D0DFF854E048
:101C10002668DEF800706068BE4201D0834209D2B7
:101C20001B1A93420BD300232B600125FEF7B4FC53
:101C30002846F8BD0125FEF7AFFC2846F8BDDEF8C2
:101C40000000D31A0A682B6084E805000025FEF71F
:101C5000A3FC2846F8BD0025FEF79EFC2846F8BDEB
:101C6000543B0020103B0020014B01221A607047BA
:101C7000583B0020084B186860B9084B1B6853B9E3
:101C8000074A084B10681B68013B984214BF0120AB
:101C90000220704700207047143B0020583B002072
:101CA0002C3B0020C83A0020054B1B6833B1054B84
:101CB0001B68002B0CBF02200020704701207047DA
:101CC000283B0020D43A0020002839D0F8B5C36B57
:101CD000C16A826B013B9142C36300D00BB100200B
:101CE000F8BD071D04463846FEF7AAFB78B9E26A3C
:101CF0001448154E02EB82039B00C3584BB933685E
:101D0000012101FA02F223EA0202326001E00D48E9
:101D10000D4EA36BD6F800C0E3620125C3F1030E9C
:101D200005FA03F203EB830342EA0C0200EB8300A3
:101D30003946C4F818E03260FEF75CFB2846F8BD6F
:101D4000002070478C3A0020DC3A00202DE9F04159
:101D50002E4C06460D46FEF715FC23681B6C23B976
:101D60002368012783F84470B5B9FEF715FCFEF728
:101D700009FC23681D6C1DB1236856B96A1E1A64DC
:101D80002368002283F84420FEF706FC2846BDE8BD
:101D9000F08100221A64F3E71D4BD3F8008020681D
:101DA0000430FEF74DFB38B923681A4AD96A136824
:101DB0008F4023EA070717606B1C20D04544236837
:101DC000A8455D6014D8144B186821680431FEF7EB
:101DD0001DFB124B1A68954238BF1D60104B4FF027
:101DE00080525A6040BFBFF34F8FBFF36F8FBCE785
:101DF0000C4B186821680431FEF708FBEEE72168F8
:101E000009480431FEF7F6FAE8E700BF803A0020FF
:101E1000543B0020DC3A0020843A00200C3B002098
:101E200000ED00E0883A00202C3B0020F8B51D466C
:101E300004460F461646FEF7A5FB0DB1236C2B603A
:101E400094F844500223721EEDB284F84430032A01
:101E500006D8DFE802F03E0C0402022D3DD02764D4
:101E6000012D0AD00124FEF797FB2046F8BD236C14
:101E7000012D03F101032364F4D1261D3046FEF742
:101E8000DFFA194AE36A176818489D4003EB830399
:101E900000EB830031463D431560FEF7ABFA144B6F
:101EA0001A681268DAB11A68124BD268D26852689E
:101EB0001A60114BE26A1B68DB6A9A42D2D90F4B57
:101EC0004FF080525A6040BFBFF34F8FBFF36F8F08
:101ED000C8E7236C1F432764C2E70024C3E7054B10
:101EE0004FF0FF321A60E4E7DC3A00208C3A002021
:101EF000843A00200C3B0020803A002000ED00E0F6
:101F00002DE9F041EFF31186402383F3118802237A
:101F100090F8445080F84430036CEDB20133012D49
:101F2000036403D086F31188BDE8F081184B1B6869
:101F30000F4604468BB100F118011648FEF75AFA15
:101F4000154BE26A1B68DB6A9A42EBD9DFB10123C9
:101F50003B6086F31188BDE8F08100F1040840463B
:101F6000FEF76EFA0D4AE36AD2F800E00C489D4095
:101F700003EB830345EA0E05414600EB8300156041
:101F8000FEF738FADCE7074B01221A60CAE700BF08
:101F9000D43A0020143B0020803A0020DC3A002094
:101FA0008C3A0020583B0020F0B5174C83B0FEF768
:101FB000E9FA25687DB1FEF7EFFA206848B1134BC6
:101FC0000193022300938022002311491148FFF757
:101FD00023F803B0F0BD104F104E3846FEF7FAF963
:101FE0003046FEF7F7F90E4A0E4B176010212A46CD
:101FF00020201E60FEF79EFB20600028DBD00A49EF
:10200000FEF792FFD7E700BF903B0020943B0020F3
:10201000343F040021210000643B0020783B002075
:102020005C3B0020603B00202C3F04002DE9F04F7A
:10203000804683B028200F4616461D46FEF79CF9C1
:10204000044690B1DFF87490FEF79CFAD9F80020AE
:102050007AB1FEF7A1FA0C9BC4F80080A761E66193
:1020600025626362201DFEF7C1F9204603B0BDE87A
:10207000F08FDFF84CB0DFF84CA001925846FEF725
:10208000A9F95046FEF7A6F909490A4BC1F800B074
:10209000019AC3F800A010212020FEF74BFBC9F8DD
:1020A00000000028D5D00449FEF73EFFD1E700BF6D
:1020B0005C3B0020603B00202C3F0400903B002054
:1020C000643B0020783B002030B5144D2C6885B06F
:1020D00004B305298DE8060002900BDCFFF7E4FD50
:1020E00002280FD0002328681A466946FEF754FBE1
:1020F00005B030BD1A46204600236946FEF710FDA4
:1021000005B030BD2868089A00236946FEF744FBF5
:1021100005B030BD204605B030BD00BF903B00206B
:102120002DE9F04FA84EDFF8B082A84D8BB0336890
:102130001C68002C00F08C80DB681C68FFF732FA0A
:10214000FFF738FAD8F800308342074651D8844266
:10215000C8F8000040F2C6800022E11B2868FEF7A4
:10216000F5FEFFF7CFFA40B9994B4FF080525A6015
:1021700040BFBFF34F8FBFF36F8F002202A92868C3
:10218000FEF748FD0028D2D0029B002B58DB049CB0
:10219000636913B1201DFEF753F9FFF70BFAD8F866
:1021A00000309842814641D3029BC8F80090092B29
:1021B000E3D8012202FA03F313F4047F40F0B48061
:1021C00013F0C70F40F0C1809B06D6D52046FEF71E
:1021D000FFF8D2E7DB68DC68D3F800A004F104095B
:1021E0004846FEF72DF9636A20469847E369012BBC
:1021F00040D033681A68002AECD1764AC8F80070DB
:1022000012683260734A1360FFF77CFAB5E7DB6847
:10221000DF68D3F800B007F1040A5046FEF710F962
:102220007B6A38469847FB69012B2ED033681A68C1
:10223000002AECD1674A12683260664A1360B3E73D
:10224000039B059904989847029B002B95DB9EE71A
:10225000FFF7A8F9FFF7AEF9D8F800308342074638
:10226000C7D85C4BC8F800701B681A68B2FA82F2D3
:10227000520972E7A36953449A45494610D26360F4
:1022800024613068FEF7C2F8B3E7BB695B449B4545
:10229000514616D27B603F613068FEF7B7F8C5E75C
:1022A0002B68002BA5D000230693CDF81CA0089422
:1022B000FFF7FAFC00231A4606A92868FEF76CFA15
:1022C00097E72B68002BB1D000230693CDF81CB004
:1022D0000897FFF7E9FC00231A4606A92868FEF7CD
:1022E0005BFAA3E7FFF70EFA3368DB68D3F80C90CC
:1022F00009F1040A5046FEF7A3F8D9F81C30012B67
:1023000004D0D9F824304846984736E7D9F8183031
:10231000C9F81090E218BA42C9F804203AD95146D7
:102320003068FEF773F8ECE7039B246103EB0902C6
:102330004A45A361626028D8002B3FF41EAF254BAD
:10234000211D1868FEF762F817E7039BA169246155
:102350005A184A45626014D8A9EB03039942EED893
:10236000636A20469847E369012B7FF406AF03991F
:10237000A26900230A44009320461946FFF7A4FEF1
:10238000FBE64B4501D99342EAD9211D3068FEF79F
:102390003DF8F2E63F1BBB4210D82B68002BB0D0B3
:1023A000002306930794CDF82090FFF77DFC0023CF
:1023B0001A4606A92868FEF7EFF9A2E7054B514631
:1023C0001868FEF723F89CE75C3B0020903B002058
:1023D00000ED00E0603B00208C3B002010B504467F
:1023E000FEF7D0F86469003418BF0124FEF7D4F872
:1023F000204610BD10B50446FEF7C4F8246AFEF767
:10240000CBF8204610BD00BF00B585B00023039077
:10241000194601AA44F201000193029300F004F866
:1024200005B05DF804FB00BF10B572B601F036FBD5
:1024300001F06CF80028FBD1104B114C1149E41A43
:10244000E408240444F0010001F092F90E4B1B68EB
:10245000DB0700D500BE44F002000C4901F088F90A
:10246000BFF34F8F0A490B4BCA6802F4E062134373
:10247000CB60BFF34F8F00BFFDE700BFD4EC04007B
:10248000ECEC04003C3F0400F0ED00E0483F0400A9
:1024900000ED00E00400FA0512F0030301D007206C
:1024A0007047F0B4094D0A4F2B700A4D3A604C1C2E
:1024B0002B70094F094D0A4E3880E400A4B2224423
:1024C000298032601846F0BC704700BF983B00205E
:1024D000A03B0020A83B0020A43B0020A63B0020FE
:1024E0009C3B00202DE9F047174C184D22782B78A3
:1024F0009A4226D0DFF85C90DFF85C80144FDFF85A
:102500005CA02378D9F800203888D8F80060DBB2C6
:102510000FFA83FC02EBCC0103FB0060898852F8C0
:102520003C3098472378BAF80020DBB29A4203F196
:1025300001038CBFDBB20023237022782B789A42F0
:10254000DFD1BDE8F08700BFA83B0020983B00200A
:10255000A43B0020A03B00209C3B0020A63B002089
:1025600010B5FFF747FF037B03B910BD8368006810
:10257000BDE81040184700BF002070473AB170B561
:1025800005682B7B82B023B1082002B070BD072004
:1025900070476B68002BF7D114460E46102219467F
:1025A00028463FF059FF321C084BAC6018BF01228F
:1025B00000934FF47A712B460548FFF737FD00284A
:1025C000686014BF00200E20DFE700BF6125000017
:1025D000404004002DE9F041476884B0002F44D00A
:1025E000037B15460C460646002B42D13560EFF3BF
:1025F000058585B94FF002082246CDF800802B46AC
:1026000004213846FFF760FD0128044638D0042035
:1026100004B0BDE8F08104AD4FF0000845F8048D2A
:102620002246CDF800802B4609213846FFF74CFDA5
:102630000128ECD1FEF7C4FFCDF8008002462B46FE
:1026400038460621FFF740FD0128E0D1039B43B146
:10265000124B4FF080525A6040BFBFF34F8FBFF311
:102660006F8F012333730020D2E7082004B0BDE848
:10267000F0813846FFF7B2FE0028B7D00020C7E748
:10268000FEF798FFCDF8008002462B4621463846DB
:10269000FFF71AFD0128BAD1E3E700BF00ED00E023
:1026A000416859B310B5044684B0EFF305835BB9B4
:1026B00002220846009203211A46FFF705FD012871
:1026C00018D0042004B010BD04AB002243F8042D40
:1026D000084600920821FFF7F7FC0128F1D1039B7F
:1026E00043B1074B4FF080525A6040BFBFF34F8F4A
:1026F000BFF36F8F0020207304B010BD0820704717
:1027000000ED00E072B6024A1368013313607047AF
:10271000AC3B0020034A1368013B136003B962B667
:10272000704700BFAC3B00200B685A1EFF2A02D93D
:1027300048F207107047202BF0B516D8022200236C
:10274000154C164F54F822403E68082B26FA03F227
:1027500034BF80254FF48075D2070FD401330C2B82
:102760002C44F2D148F20410F0BD402BE6D9802B66
:102770008BBF0322022208230023E1E74FF0010E62
:10278000074A0EFA03F326EA0306144404603E6087
:1027900000200D60F0BD00BF583F0400B03B00209A
:1027A000B43B0020054A064913686FEA13336FEA09
:1027B000033301200870136000207047B03B0020F5
:1027C000B443002000B50A4B83B01B78019000226F
:1027D00000921BB9002003B05DF804FB01A9684614
:1027E000FFF7A2FF0028F5D1009803B05DF804FBC5
:1027F000B4430020284B1B7883B378B3274B98420F
:1028000039D003F18002904233D003F580729042B8
:102810002DD003F5C07290422FD003F50072904284
:102820002DD003F5207290422BD003F540729042D8
:1028300029D003F56073984227D08033984226D080
:1028400003F58072904224D003F50072904206D0C6
:1028500003F54073984208BF0B2001D070470A204F
:102860000F4901220B68824013430B60704702201E
:10287000F6E70120F4E70020F2E70320F0E7042068
:10288000EEE70520ECE70620EAE70720E8E7082066
:10289000E6E70920E4E700BFB4430020B43B002092
:1028A000B03B002000B550E8002F0B4640E8003E4A
:1028B0009EF0000FF7D110465DF804FB00B550E81C
:1028C000003F03EB010240E8002E9EF0000FF6D11E
:1028D00010465DF804FB00BF00B550E8003FA3EBD5
:1028E000010240E8002E9EF0000FF6D110465DF880
:1028F00004FB00BF00B5012350E8002F42EA030E9D
:1029000040E800E191F0000FF6D170465DF804FB5D
:1029100000B5002350E800EF0EEA030240E8002172
:1029200091F0000FF6D170465DF804FBB8B130B4F9
:10293000416882680468521AD2B2531E2160DBB229
:1029400042B101680A685C1E551C0D601370E3B249
:10295000FF2BF6D103680020187130BC70470E20A1
:10296000704700BF70B504460020FFF7CBFE236818
:1029700061681A688A4215D9511E19602168A368D6
:102980000D680879268A12F8012CE4685B1BDBB21B
:10299000984206FB024400D20B710020FFF7BAFEFA
:1029A000204670BD00240020FFF7B4FE204670BD15
:1029B00038B5054600200C46FFF7A4FE2A681368C8
:1029C000591C1160E9682A8A641AB4FBF2F41C707D
:1029D0000020BDE83840FFF79DBE00BF826802B905
:1029E000704710B5044643690168006998470023A1
:1029F000A36010BD0EB400B582B0039929B102AA3C
:102A000004AB42F8043D00F095F802B05DF804EB29
:102A100003B070472DE9F84F1746B942884606467D
:102A20001D46DDF828B00B9A7DD30B464FF0010907
:102A3000B3FBF7F39F4209F10109F9D9A94538BF62
:102A4000A94612F0010A02D1BBF1000F49D1B268C8
:102A5000012402E0013D07FB04F4012DFAD8B8FB84
:102A6000F4F18F42F7D9324D05E0B4FBF7F4A4B18D
:102A7000B8FBF4F1B268685C531CB36033689854D7
:102A8000B26873689A4204FB1188EED33046FFF7B0
:102A9000A5FFB4FBF7F4002CEAD1BAF1000F16D071
:102AA000BBF1000F33D0CB4588BF20243ED9B3689B
:102AB0003268591CB160D454B26873689A420BF101
:102AC000FF3B06D2BBF1000F09D0D945EFD1BDE8DD
:102AD000F88F3046FFF782FFBBF1000FF5D1BDE85C
:102AE000F88F93071AD42024CB45B0D9B268336845
:102AF000511CB1609C54B26873689A420BF1FF3B61
:102B000007D2BBF1000FA3D0CB45F0D1A0E7BDE8C1
:102B1000F88F3046FFF762FFB268F2E7002D0CBF76
:102B200030242024E0E74FF0010987E7BDE8F88F63
:102B3000803F0400002900F06F822DE9F04F064627
:102B400085B093460C460B780DE0B2683168501C96
:102B5000B0608B54B26873689A4280F0D380237857
:102B6000002B00F0BA800134002B00F0B680252B3A
:102B7000EBD14FF00008234614F8012B2D2A00F06A
:102B8000BB80302A00F0BB802B2A00F0AD802A2ABF
:102B900000F0BC80A2F13005E9B2092998BF0133E9
:102BA00002D9A9E1A1F130051C4613F8012BA2F1CD
:102BB000300005EB8501092802EB4101F2D92E2AEC
:102BC00000F0B080002701E014F8012F02F0FB03B1
:102BD000682BF9D0253A532A7AD8DFE812F07A0127
:102BE000790079007900790079007900790079001D
:102BF000790079007900790079007900790079000D
:102C000079007900790079007900790079007900FC
:102C100079007900790079007900790079007900EC
:102C200079007900790079007900790079007900DC
:102C300079007900790079007900790079007900CC
:102C4000790079006A0179007900790079007900CA
:102C5000790079007900790079005501FC0079004C
:102C6000790079007900FC00790079007900790019
:102C700079007900540079007900CA007900BA001F
:102C8000790079006A01DBF80020131DCBF80030D1
:102C9000B368156831685A1CB2604FF03002CA54EC
:102CA000B3687268934280F0A0813268581C782122
:102CB000B060D154B26873689A4280F09281002269
:102CC000082301922946009310223046FFF7A2FE06
:102CD00001342378002B7FF446AF337B002B40F088
:102CE000058105B0BDE8F08F234614F8012B2D2A8D
:102CF00048F004087FF445AF48F001083BE748F08E
:102D0000020838E73046FFF769FE28E7DBF80020C5
:102D1000111DCBF8001015685A782E2A03F1010412
:102D20007FF450AF6278A2F13003092B04F1010463
:102D30004FF000073FF64AAF07EB870702EB470764
:102D400014F8012FA2F13003092BA7F13007F3D9B2
:102D50003CE7DBF800301A1DCBF800201968CDF8ED
:102D600004803B4600950A223046FFF753FE0134AB
:102D7000AFE7DBF800301A1DCBF8002018F0010F88
:102D8000D3F8009040F0BB80B9F1000F00F047810C
:102D900048463FF0C6FF0746BD4240F2F180002D95
:102DA00000F0EE804FF0200805E0BD4200F0E88022
:102DB000002D00F0E580B3683268591CB16002F85C
:102DC0000380B26873689A4205F1FF35EDD330464F
:102DD000FFF704FEE9E7DBF800301A1DCBF800200E
:102DE000D3F8009089EAE973A3EBE973092B4FF05C
:102DF000010A09DD8F4A82FB0312DB17C3EBA20332
:102E0000092B0AF1010AF5DCBA4538BFBA462DB3E1
:102E1000B9F1000F02DB18F0040F00D0013D18F0EB
:102E2000020F40F0F58018F0010F17D1002D00F0CF
:102E3000FE80AA4538BF202110D2B2683368501CEA
:102E4000B0609954B26873689A4205F1FF3580F01A
:102E5000E880002D00F0EB80AA45EED1B9F1000F1B
:102E6000C0F2C88018F0040F7BD108F00303022BD6
:102E700000F09A808DE820013B4649460A22304600
:102E8000FFF7C8FD013424E7DBF80020131DCBF861
:102E90000030B36831681278581CB060CA54B26808
:102EA00073689A42FFF414AF3046FFF797FD013480
:102EB0000FE7DBF800301A1DCBF800201968CDF8B9
:102EC00004803B46009510223046FFF7A3FD0134F5
:102ED000FFE6B3683268591CB1604FF02501D15448
:102EE000B26873689A42DFD20134F2E6304605B028
:102EF000BDE8F04FFFF772BD1C4600255FE64F4668
:102F0000A7EB090817F8013B8BB1B2683168501C78
:102F1000B0608B54B26873689A42F1D33046FFF7C1
:102F20005DFDA7EB090817F8013B002BEDD14545E6
:102F30007FF6CEAE202705E045453FF4C9AE002D13
:102F40003FF4C6AEB3683268591CB160D754B2685A
:102F500073689A4205F1FF35EED33046FFF73EFD28
:102F6000EAE7B2683368501C2B21B0609954B2680C
:102F700073689A42FFF479AF3046FFF72FFD74E78C
:102F800009F1FF3919F8013F002B3FF4A1AEB268F7
:102F90003168501CB0608B54B26873689A42F1D3A8
:102FA0003046FFF71BFDEDE7002F7FF463AF002DE8
:102FB00033D0AA45BFF45EAFB2683368511CB1602C
:102FC0004FF030019954B26873689A4205F1FF35A9
:102FD00003D215B3AA45EFD14CE73046FFF7FEFC0C
:102FE000F7E73046FFF7FAFC69E63046FFF7F6FCF4
:102FF000B3685AE6B2683368501C2D21B06099540A
:10300000B26873689A42C9F10009FFF42EAFB3E7C2
:10301000002F3FF423AF06E7704700252AE74F460D
:10302000BAE630460391FFF7D9FC039911E7002572
:1030300014E700BF67666666FFF778BC2DE9F041CC
:10304000B0F81080CF1CA8F1040847440646B7FB2F
:10305000F8F7FFF787FC80B3FFB200250123013F9B
:103060000446A0F8068006600571437128D08046AA
:1030700009E06379AF4203F101036371C8F800000E
:10308000066080461CD03046FFF76CFC01350028F6
:10309000EFD16679721E16D02346013082421B683A
:1030A000FBD81F684EB1214600250C680135384613
:1030B000FFF77EFCAE422146F7D10020BDE8F0814B
:1030C0002046BDE8F0812768EDE700BF043001210C
:1030D000FFF7F4BBF8B5012104460430FFF7FCFB11
:1030E000C0B200B1F8BD6679721E12D0234601301D
:1030F00082421B68FBD81F68002EF3D021460024B3
:103100000D6801343846FFF753FCA6422946F7D133
:10311000F8BD2768F2E700BF2DE9F843C78890F8AB
:1031200005E0154607FB0EFEEC18AEF1040E1A1D65
:10313000A6458846B2FBF7F638BFAEEB030507FBA2
:103140001621044616B1013E2468FCD17E1AAE4217
:1031500028BF2E469DB14FF00009081DAD1B08EB9E
:103160000901204432463FF052F9AF42B14424688D
:103170003E464FF0000128BF2E46002DEDD1BDE8A0
:10318000F88300BF2DE9F843C78890F805E015469D
:1031900007FB0EFEEC18AEF1040E1A1DA64588467C
:1031A000B2FBF7F638BFAEEB030507FB162104466A
:1031B00016B1013E2468FCD17E1AAE4228BF2E46CD
:1031C0009DB14FF0000904312144AD1B324608EB9C
:1031D00009003FF01CF9AF42B14424683E464FF06D
:1031E000000128BF2E46002DEDD1BDE8F88300BFB9
:1031F00082680023936082681361826853618268E9
:10320000D36082685360826813607047704700BF64
:1032100000B583B0044B0093044A402300F036F815
:1032200003B05DF804FB00BF31320000B84300205A
:1032300002B32DE9F843114B114E8846144643F072
:10324000010903270025224608EB0501002002F0B2
:1032500063FD03461D444FF47A40E41A23B93378E2
:1032600033B1C847013F06D001233370002CEAD1A7
:10327000BDE8F88370473770BDE8F883903F0400DD
:10328000B5430020704700BF02F070BEF0B595B0A6
:10329000002415460F4608461E46FFF717FF38461E
:1032A00023460822089505A91A9D09960D950A94AA
:1032B0008DF82C400C94FFF765FF9DF814300798AB
:1032C00006998DF8114003F00302012A0290039140
:1032D00028D0022A04D03846FFF7FCFE15B0F0BD16
:1032E000BDF81650C3F3C2038DF81030C5F389152D
:1032F0000826082D2C4628BF0824334622460EA94E
:103300003846FFF73FFF2D1B214608AB02AA0EA847
:10331000264400F07FFC002DEBD13846FFF7DAFEA3
:1033200015B0F0BDBDF81460059DC6F38316C3F358
:10333000C204B2000EA9384608238DF81040C5F328
:103340009525FFF71FFF08AB0093324628460EA9CC
:1033500002AB00F0B9FBBEE708B5FFF795FF04210B
:10336000034800F069FB034B01225A7108BD00BFFE
:1033700004ED040000000020F0B5334D85B005F5E4
:103380008360FFF7B7FA05F21440FFF7B3FA6B68F2
:10339000AE6803EA0600C11C05EB810215F8214066
:1033A00014F004040ED0117801F0030101293BD080
:1033B000022903F1020700F1030126D005EB810287
:1033C000002CF0D105EB80005A1CC16801913240FD
:1033D00005EB820201F00301D2680292012903F198
:1033E000020429D0022925D1BDF80630BDF80A60B3
:1033F000C3F38913033304EB93041448FFF788FAEB
:1034000000B16C60304605B0F0BD538807EB9313F4
:1034100006EA0300C11C05EB810215F8214004F007
:103420000404002CBFD1CDE711880233C1F383110E
:103430000B44EDE70026E0E7BDF80430BDF80A6074
:10344000C3F383131C44D8E7C8440020DC480020A1
:103450000B4B0C4810B50022FF21C3F818249960CB
:103460001A605A60C3F8142483F82024FFF7E4FD9F
:10347000044610B90448FFF7BBFE204610BD00BF4C
:10348000C844002014ED0400B43F040021B9114BDE
:1034900003EBC0000068704730B40F4A0D4C121B9C
:1034A000D2080CD00D4D2B88834210D0002303E0AE
:1034B00035F82310814205D001339A42F8D100201B
:1034C00030BC704704EBC300006830BC7047204636
:1034D000FAE700BFD4EC040004ED0400540200201D
:1034E000094B013903EBC00003290BD8DFE801F0D9
:1034F000020806040220704740797047007970473F
:103500000420704700207047D4EC04002DE9F047F8
:10351000914C94E80C009A4284B000F0B6800023ED
:10352000C4F81834BFF34F8F6368A56803EA050138
:10353000CA1C04EB820614F8222050071AD527680B
:10354000327802F00302012A43D0022A03F1020278
:1035500002D1738802EB931305EA0301D4F818042F
:10356000CA1C04EB820628B99F4238D914F82220DD
:103570005207E5D404EB81015A1CC96801912A4025
:1035800004EB820201F00301D2680292022903F1E6
:10359000020828D001297CD0D4F810543DB12B6802
:1035A00028469B689847EB681D68002DF7D16B484B
:1035B0006B4B6C49C01AC008000440F0020000F0D8
:1035C000D7F860682368C01A18BF012004B0BDE8AE
:1035D000F08732880233C2F383121344BCE767607A
:1035E00004B0BDE8F087BDF806305F48C3F3891921
:1035F0004F46502FA8BF502767F38F1307F10801DC
:10360000ADF80630FFF71AFD06460028C4D025EABB
:10361000080A0AF1010AFFF759FD4FEA8A0A002356
:10362000082201A93046FFF777FD57456ED9BAF158
:10363000000F7AD13A4608234C493046FFF76CFD1B
:1036400009F1030708EB9707D4F81834002B68D169
:10365000D4F810545DB1EB685A79314628461AB156
:103660002B681B689847EB681D68002DF3D1304626
:10367000FFF730FD0020FFF745F8D4F8183403B900
:1036800067600020FFF746F89BE7002004B0BDE824
:10369000F087BDF804303448C3F38312062A28BFEC
:1036A0000622911C62F389138900ADF80430FFF7FC
:1036B000C5FC064600283FF46FAFFFF707FD002367
:1036C000082201A93046FFF727FDBDF8043013F4A6
:1036D000707F3FD04FF0000A4FF0080905EA08015B
:1036E00003314B4604EB810104223046FFF714FD01
:1036F000BDF804300AF1010AC3F3831308F101078E
:10370000534509F10409B846E8D89DE705EA0801E0
:10371000033104EB81013A4608233046FFF7FCFCF5
:103720008EE73046FFF7D6FC4BE705EA0801033188
:10373000A7EB0A0504EB810152463046EDB208239F
:10374000FFF7EAFC2A460AF1080308493046FFF76A
:10375000E3FC75E7474677E7C8440020ECEC04003B
:10376000D4EC0400C03F040014ED0400D444002055
:103770002DE9F843DFF8D890074600208846D9F8AD
:103780000850FEF7BFFFD9F80820D9F80430D9F85F
:103790000060134401339B1B012B55D809F21C44D4
:1037A00001212046FFF78AF8FFF7E6FD0146204693
:1037B000FFF784F899E80A00D9F808201344013388
:1037C0005B1A012BECD901240A40033244F00403B4
:1037D0006FF3891349F8223002310020C9F8001034
:1037E000FEF798FF00211948FFF75CF880F31000FE
:1037F00033192B4009EB830300043540033540EABD
:103800001740D86019F8253067F3C50309F825304B
:1038100039F825306FF3891329F8253059F8252018
:1038200068F39F22134664F301036FF3820349F8A0
:10383000252009F8253099F820341BB1FFF766FEE2
:103840000028FBD1BDE8F8833146BCE7E4480020FE
:10385000C84400202DE9F047354C804600209246B0
:103860008946A568FEF74EFFA2686368276813447F
:103870000133DB1B022B59D804F21C4601213046D0
:10388000FFF71CF8FFF778FD01463046FFF716F802
:1038900094E80A00A268134401335B1A022BEDD9A5
:1038A00001260A40033246F0040366F3891344F804
:1038B0002230033100202160FEF72CFFBB1C2B407F
:1038C00004EB830300211B48C3F80CA0FEF7EAFFBA
:1038D00080F31000BB192B4004EB830300043D4030
:1038E000033540EA1840D86014F8253068F3C50362
:1038F00004F8253034F8253066F3891324F8253090
:1039000054F8252069F39F22134666F301036FF3F1
:10391000820344F8252004F8253094F820341BB1A4
:10392000FFF7F4FD0028FBD1BDE8F0873946B7E783
:10393000C8440020E44800202DE9F04F3C4C83B0FF
:1039400080460020934601938946A668FEF7DAFE7A
:10395000A2686368276813440133DB1B032B64D818
:1039600004F21C4501212846FEF7A8FFFFF704FDDD
:1039700001462846FEF7A2FF94E80A00A268134415
:1039800001335B1A032BEDD901250A4003324FF0B6
:10399000020A45F0040304316AF38913002044F855
:1039A00022302160FEF7B6FE07EB0A0EFA1C0EEA83
:1039B000060E324004EB820204EB8E0E019B1D4882
:1039C000CEF80CB00021D360FEF76CFF80F310003E
:1039D0007A19324004EB820200043E40033640EA8A
:1039E0001840D06014F8262068F3C50204F8262099
:1039F00034F826206AF3891224F8262054F8262069
:103A000069F39F22134665F301036FF3820344F8C1
:103A1000262004F8263094F820341BB1FFF776FDF9
:103A20000028FBD103B0BDE8F08F3946ACE700BFFA
:103A3000C8440020E448002030B4174DD5F81044A5
:103A400000215CB1E3681A798A4204D116E0DB6890
:103A50001A798A4212D01B68002BF8D1C3681971F9
:103A6000D5F8103493B1DA68C36812681A60D5F8D3
:103A70001034DB681860084630BC704701310A29F1
:103A8000DFD14FF0FF31084630BC7047C5F8100455
:103A9000C2681360EFE700BFC844002038B5094B87
:103AA000D3F81044012583F820544CB1E3685D71CC
:103AB000236820465B689847E3681C68002CF5D1B2
:103AC00038BD00BFC84400202DE9F04784B01D4632
:103AD0000C9C002394F80C802373EB8881460E46DF
:103AE0001746002B3BD1297A05290FD06B7A002B82
:103AF0003DD1404BA88853F821A00021FFF7C6FC18
:103B0000524603463C492046FEF774FF062F0FD865
:103B1000DFE807F0484D535A04633900F168B06894
:103B200096E80C000191009049462046FEF762FF9E
:103B30002B7A052B05D06B7A5BB930492046FEF70E
:103B400059FF2046FEF74AFF84F80C8004B0BDE818
:103B5000F0872B4A2B492046FEF74CFFEDE7284A19
:103B600000922949294A2046FEF744FFBBE7A8886E
:103B7000FFF7B6FC264B234953F820202046FEF7DA
:103B800039FF297AB5E77069316996E80C0003902E
:103B9000B068F76802918DE8810049462046FEF73B
:103BA00029FFC5E749462046FEF724FFC0E73268F3
:103BB00049462046FEF71EFFBAE7494696E80C0044
:103BC0002046FEF717FFB3E7B16896E80C002046E1
:103BD00000914946FEF70EFFAAE7B068F768316921
:103BE00096E80C0002918DE8810049462046FEF7D8
:103BF00001FF9DE744400400384004003C430400BA
:103C000030400400444F04001840040010400400F9
:103C1000D83F0400082900D970472DE9F04F1D4610
:103C2000904600232A7B2B7385B0B8F806300392A8
:103C300007460E46002B6BD198F80810052911D0C5
:103C400098F80930002B6BD13C4BB8F8040053F8BE
:103C500021400021FFF71AFC224603463849284636
:103C6000FEF7C8FEDFF8F8B0DFF8F8900024A642AF
:103C7000494628463ED93A5D0134FEF7BBFE082C82
:103C8000F5D13049DFF8E090DFF8E0B02846FEF7E4
:103C9000B1FE002411E017F804A03EF081FB50446F
:103CA0005946437813F0970F14BF52462E222846E8
:103CB0000134FEF79FFE082C08D0A642494628464C
:103CC000E9D80134FEF796FE082CF6D198F80830B2
:103CD000052B02D098F80930A3B91B492846FEF7F6
:103CE00089FE2846FEF77AFE9DF80C302B7305B04E
:103CF000BDE8F08F013459462846FEF77BFE082CBC
:103D0000B5D1BEE7114A12492846FEF773FEE4E733
:103D10000E4A00920F49104A2846FEF76BFE8BE7C9
:103D2000B8F80400FFF7DCFB0C4B094953F82020DE
:103D30002846FEF75FFE98F8081085E74440040027
:103D400038400400084004003C43040030400400B4
:103D5000444F04001840040010400400D83F040001
:103D600004400400FC3F0400404004000C400400F8
:103D700010B568B101280AD10C4C2369A07033B189
:103D80000CCB0120226198472369002BF8D110BD8C
:103D9000064CA36801226270002BF8D00CCB0020E7
:103DA000A2609847A368002BF8D110BD8449002079
:103DB00010B50B4C237882B013B1852002B010BD32
:103DC00008486360A3602361E36000F0F5F80190A8
:103DD00000F000F901980123237002B010BD00BF6C
:103DE00084490020713D000038B5154DAB7804467C
:103DF00073B110B14368012098470020FEF782FCA0
:103E0000EB680133EB600020BDE83840FEF782BC70
:103E100003F0FF00FEF776FC64B12A6942B19442D8
:103E200008D0134601E09C4204D01B68002BFAD155
:103E300022602C61EB68002BE2D100F0DFF8DFE7B5
:103E40008449002038B5084C0020FEF75BFCE3688D
:103E5000013BE360E56815B900F0E8F8A5700020C3
:103E6000BDE83840FEF756BC844900204FF080433F
:103E7000D3F81804C0F30040704700BF38B5154DA3
:103E80006B78044673B110B1436800209847002056
:103E9000FEF738FC6B6801336B600020BDE83840EA
:103EA000FEF738BC03F0FF00FEF72CFC64B1AA68F3
:103EB00042B1944208D0134601E09C4204D01B68F2
:103EC000002BFAD12260AC606B68002BE2D100F0CD
:103ED000B9F8DFE78449002038B5084C0020FEF728
:103EE00011FC6368013B6360656815B900F0BCF8BC
:103EF00065700020BDE83840FEF70CBC8449002006
:103F00004FF08043D3F80C0400F00110A0F1011031
:103F1000B0FA80F0400970470A4A0223C2F804351B
:103F2000BFF36F8FBFF34F8FC2F80805D2F800348C
:103F3000002BFBD00023C2F80435BFF36F8FBFF313
:103F40004F8F704700E001409AB32DE9F047194CBC
:103F5000A0EB01080D468E18C0004FF0FF0C4FF08B
:103F6000010E002708EB050222F0030200F01809F9
:103F7000116815F8013BC4F804E50CFA09FA21EAC6
:103F80000A01BFF36F8FBFF34F8F03FA09F30B449E
:103F90001360D4F80034002BFBD0C4F80475BFF3D1
:103FA0006F8FBFF34F8FAE4200F10800DAD1BDE84A
:103FB000F087704700E00140054A13790BB1852076
:103FC000704701211060537118461171704700BF8E
:103FD00098490020084B1A68D20706D40122C02154
:103FE00083F80013C3F880211A604FF08043012248
:103FF000C3F81825704700BF00E100E010B4094B7A
:10400000094A0021196083B01B680193019C4FF09D
:10401000804102200123C1F80403136003B05DF85E
:10402000044B70470401004008000040044B01228B
:104030001A604FF08042D2F81834DB03FBD470478B
:104040000C000040074B00221A6082B01B680193ED
:1040500001994FF080430122C3F804231A6002B093
:10406000704700BF00010040074B01221A604FF06B
:104070008042D2F80C3403F00113B3F1011FF8D0E1
:10408000024B00225A7170470400004098490020FA
:1040900010B5144B1A6882B062B10021124A19603F
:1040A0001B68507900934FF080410123009CC1F8B8
:1040B000083390B10D4B1A686AB100221A601B6870
:1040C00001934FF080420221074B0198C2F8081378
:1040D0001B680120984702B010BD116853718847D2
:1040E000E8E700BF000100409849002004010040BB
:1040F00070B5244C94F86A5082B015B1082002B013
:1041000070BD4FF0FF332946FF26062204F16400FC
:1041100023636363A363E36323646364A364E3646B
:1041200023656365A365E36523606360A360E36063
:1041300023616361A361E361236284F86030636299
:10414000A36284F86230E36284F8633084F86160CB
:104150003EF082F90C4B0D4A0D4E15604021C020F7
:1041600083F80603C3F8801119601368019301995D
:104170004FF000430122284684F86A20C6F8043331
:1041800002B070BDA049002000E100E07C61004069
:104190000060004070B4494B1A1892F93040013465
:1041A00002D0082070BC70478C78DCB11A680132EC
:1041B00077D05A68013276D09A68013275D0DA68C1
:1041C000013274D01A69013273D05A69013272D047
:1041D0009A69013231D0DA69013208BF07252DD042
:1041E0000420DFE7FE2382F830304B78012B4BD0E0
:1041F0001F2887BF00F01F01314A01464FF0A0423F
:1042000001238B40C2F80C351F288BBF00F01F0321
:1042100003462B4A4FF0A04203F5E073032142F816
:10422000231020FA01F3274A00F00704D15C012093
:10423000A0400843D0540020B4E70625AA0002F1AC
:10424000804202F5C0421E18002443F8254086F83B
:104250003050D2F810450B784D7824F4991424F49A
:10426000F8541B042D05C2F8104505F4801503F41D
:10427000403304022B4304F47C54D2F810552343FA
:104280002B43C2F81035B0E71F2887BF00F01F018D
:104290000B4A01464FF0A04201238B40C2F808357B
:1042A000B2E70025CAE70125C8E70225C6E70325CE
:1042B000C4E70425C2E70525C0E700BFA0490020E8
:1042C00000030050044A00201F288CBF09494FF00A
:1042D000A0414FF00102D1F8043588BF00F01F0063
:1042E00002FA00F020EA03020340C1F80825C1F8F1
:1042F0000C35704700030050F0B56D4C231893F94E
:104300003050002D01DB0820F0BD91F802E0CEF323
:10431000400EBEF1000F50D02568013500F0C2807C
:104320000125082654F8253001334CD06B1C54F875
:104330002370013748D0AB1CB3423CD254F82370F1
:10434000013741D0EB1CB34235D254F8237001370A
:104350003AD02B1DB3422ED254F82370013733D0FC
:104360006B1DB34227D254F8237001372CD0AB1DFC
:10437000B34220D254F82370013725D0EB1DB3424D
:1043800019D254F8237001371ED005F10803B34247
:1043900011D254F82370013716D005F10903B34246
:1043A00009D254F8237001370ED00A35B54202D233
:1043B000E36A013374D00420F0BD256A01353AD098
:1043C00009250C26AEE72B4626185DB244F82320BB
:1043D00086F83050BEF1000F33D08B785A071CD4CA
:1043E000DE074ED51F2887BF324B00F01F02024662
:1043F0004FF0A04303EB8203D3F8002722F0020220
:10440000C3F800272C4EC20800F0070EB75C01234A
:1044100003FA0EF33B43B3548B7813F0020314D129
:10442000083D2C44097894F8602042EA811284F80F
:1044300060201846F0BD082683F8306035462262B9
:104440003346234483F85800C7E7AD0005F18045A3
:1044500005F5C0450A78D5F8101521F44F3121F43F
:104460004071C5F8101503021204D5F8101502F4B6
:10447000403203F47C5313430B43C5F8103500203E
:10448000F0BD1F284A7887BF0A4E00F01F0303467D
:104490004FF0A04603F5E073920046F82320B1E701
:1044A0000B2391E70025226083F8305095E700BF89
:1044B000A049002000030050044A0020F0B43A4D07
:1044C0002E1882B096F93030072B20DD2B4493F85C
:1044D00058309B09032B45D0012B14BF4FF44031BA
:1044E0004FF400311F284DD900F01F002F4B03EB74
:1044F0008000D0F8002722F44032C0F80027D0F81E
:1045000000370B43C0F8003702B0F0BC7047DAB296
:10451000072AF9D8980000F1804000F5C04003F167
:1045200040029200D0F8104592B202F1804200277A
:1045300044F0010402F5C042C0F81045019701980B
:1045400017600029E0D096F9302055F82220002A83
:10455000DAD00122164902FA03F3C1F8043302B09B
:10456000F0BC70471F2810D9104BD3F8103500F05D
:104570001F00C340DB0748BF4FF44031B6D44FF4AF
:104580000031B3E74FF0A043B1E74FF0A04213462C
:10459000D2F81025C24012F0010F14BF4FF4403181
:1045A0004FF40031A3E700BFA049002000030050F2
:1045B000006000402DE9F04788B00023CB4A039308
:1045C00002931168012900F0A8821E46C84B1A68A0
:1045D000012A00F09482C74B1A68012A00F08182F8
:1045E000C54B1A68012A00F06E82C44B1A68012A72
:1045F00000F05B82C24B1A68012A00F04882C14B6E
:104600001A68012A00F03582BF4B1A68012A00F0AF
:104610002282BE4B1A68012A00F00C8216F0FF0FAE
:104620001AD0BB4F01250024A30003F180432E4282
:1046300003F5C0434FEA45050BD0D3F8100557F8F2
:104640002420D3F81015C0F30520C1F3014102B1B5
:1046500090470134082CE7D1002E02DB08B0BDE8FA
:10466000F0870DF1100800224FF0FF33A84CA94F3E
:10467000C8F80420049206930793012694F9603049
:104680005A1C21D05FFA83FE2EF0C00008AB4FEA1F
:10469000D00903EB090C0EF007031CF8082C06FAEE
:1046A00003F31A4040F0388194F96110481C00F07F
:1046B0006A8215460DE0022A06D1032900F06082C5
:1046C000002D00F03682A84794F961104A1C51D0A1
:1046D0000025CBB223F0C00008AA4FEAD00C02EBB1
:1046E0000C0E03F007011EF8082C06FA01F912EA75
:1046F000090F4CD194F96210481C11D0CBB223F0B1
:10470000C00008AA4FEAD00C02EB0C0E03F0070120
:104710001EF8082C06FA01F912EA090F40F0AD80E4
:1047200094F963305A1C0FD0DBB223F0C00008AA02
:104730004FEAD00C02EB0C0E03F007021EF8081C27
:1047400006FA02F211425AD1002D87D04FF0A04351
:104750000299D3F81035D7F81025994203D103995F
:1047600091423FF47BAF049805990293039206901F
:10477000079183E794F962104B1C01D00025BDE737
:1047800094F963305D1C3FF469AF0025CCE7221833
:10479000990992F9302054F82220002A00F0238150
:1047A000032900F023811F2800F20C8184464FF07A
:1047B000A04303EB8C031EF818CCD3F800E71CEAE7
:1047C000090FCEF3014E40F0F380BEF1030F91D1FB
:1047D00003290FD14FF4003ED3F800C72CF4403C1E
:1047E000C3F800C7D3F800C701354EEA0C0EEDB28E
:1047F000C3F800E7002A3FF47DAF90477AE704EB67
:104800000009990999F9309054F82990B9F1000FED
:1048100000F0FD80032900F0FD801F288BBFBC46FF
:104820004FF0A04C03F01F0303460CEB83031EF86C
:1048300018CCD3F800E71CEA020FCEF3014E40F08B
:10484000A680BEF1030F7FF47FAF032940F0A6805E
:104850004FF40032D3F800E72EF4403EC3F800E7EF
:10486000D3F800E7013542EA0E02EDB2C3F80027A3
:10487000B9F1000F40F0968068E72218990992F983
:10488000302054F82220002A00F0B780032900F0DD
:10489000B7801F2800F2A38084464FF0A04303EBAB
:1048A0008C031EF818CCD3F800E71CEA090FCEF3EE
:1048B000014E40F08B80BEF1030F7FF431AF03292E
:1048C0000FD14FF4003ED3F800C72CF4403CC3F89E
:1048D00000C7D3F800C701354EEA0C0EEDB2C3F89D
:1048E00000E7002A3FF41CAF904719E70061004041
:1048F00004610040086100400C610040106100400C
:1049000014610040186100401C6100407C6100405F
:10491000A04900200003005022184FEA9E1192F98E
:10492000302054F82250002D7BD003297CD01F2842
:104930003AD802464FF0A04E0EEB820E1CF8189C9F
:10494000DEF8002719EA0309C2F301427FF4B3AE8F
:10495000032A7FF4B9AE03297FF4B2AE4FF40032DC
:10496000DEF8003723F44033CEF80037DEF80037A6
:104970001343CEF80037002D00F0ED800321A84747
:1049800094F961104B1C00F0EB800125A1E6BEF10B
:10499000020F7FF4D9AE032900F0EF80B9F1000FC8
:1049A0003FF4D2AEC847CFE60EF01F02BE46C3E7C3
:1049B000BEF1020F7FF49EAE03297FF41BAF4FF4CC
:1049C000403E09E703F01F0C3B46F2E6BEF1020F42
:1049D0007FF4A6AE032984D14FF4403E73E703F081
:1049E0001F0C3B465BE703297FF484AE18F80CA04C
:1049F0004AEA090A08F80CA0D5E603297FF490AE2C
:104A000018F80CA04AEA090A08F80CA041E70329A3
:104A10007FF49AAE18F80CA04AEA020A08F80CA033
:104A2000FBE6032940F0858018F809201A4308F8AE
:104A300009207CE700221A601B6801934FF0A04216
:104A4000019BD2F81025564B0292D3F810350393F0
:104A500046F00046E2E5534AD2F8042311067FF5FA
:104A6000D8AD00221A601B680093009B46F08006B8
:104A7000CFE54C4AD2F8042350067FF5C5AD00229D
:104A80001A601B680093009B46F04006BCE5454A4F
:104A9000D2F8042394067FF5B2AD00221A601B6899
:104AA0000093009B46F02006A9E53E4AD2F8042375
:104AB000D5067FF59FAD00221A601B680093009B0E
:104AC00046F0100696E5374AD2F8042317077FF51B
:104AD0008CAD00221A601B680093009B46F008060C
:104AE00083E5304AD2F8042352077FF579AD0022DE
:104AF0001A601B680093009B46F0040670E5294A83
:104B0000D2F8042391077FF566AD00221A601B6876
:104B10000093009B46F002065DE52249D1F804634C
:104B200016F001063FF452AD136013680093009B2A
:104B30004CE594F961104B1C7FF4CBAD94F96210F5
:104B4000481C7FF4DBAD94F963305A1C7FF4ECAD64
:104B500008B0BDE8F08794F961104D1C7FF415AFE3
:104B600094F96210481C01D00125C7E594F963301F
:104B7000591C3FF4EBAD0125D6E54FF4403269E610
:104B80004FF44032ECE694F962104B1C01D015460C
:104B9000B4E594F963305D1C3FF460AD1546C3E5A0
:104BA000000300500060004070B50D2082B0FFF798
:104BB0008BFB134B1348144C1A681449241A551CC8
:104BC000E4081D602404124D44F00300FEF742FE89
:104BD0002E78104B10489988104B009301362A46C6
:104BE00001232E7001F0F8FB08B902B070BD0C492A
:104BF000024644F0010002B0BDE87040FEF72ABE54
:104C00001C4C0020D4EC0400D4EC0400C840040088
:104C10002300002014000020304C0020C04D002054
:104C2000E040040010B54FF0A044D4F80435DA4356
:104C300002F4004203F40043C4F8082540F2AB102C
:104C4000C4F80C35FCF7ECFDEFE700BF08B5FEF744
:104C50005DFC0028FBD1FCF7D5FAF8E7F8B503F0C6
:104C6000F3F92B4A03464BF659012A4801F0D8FACA
:104C70000546002849D1284B284E294C2949F61AC7
:104C8000F608360446F003062A463046FEF7E2FDF3
:104C90003C210122002324486180227063703EF091
:104CA00040F82149034682B204F10A00A3803DF096
:104CB000AEFB0521174801F09DFD024600B31B49DC
:104CC0003046FEF7C7FD1A4F0025012403F0A6F970
:104CD000FDF708FCFEF71AFC013470B14FF0FF310C
:104CE0000120FDF733F8092CF0DD2A46394630461D
:104CF0000024FEF7AFFD0135E8E703F09BF9EDE78F
:104D00000C493046FEF734FDDDE7FDF77DFBB2E7E9
:104D10006D4D0000304C0020D4EC0400D4EC0400B5
:104D2000484D00208045040008000020A0450400F4
:104D3000F8450400D845040070B50546084609F05A
:104D4000B7F8074C074B0849E41AE4082404034663
:104D50002A4644F00300BDE87040FEF7EDBD00BFF9
:104D6000D4EC0400D4EC04004C450400F0B50B78FE
:104D70008BB00C460D2B33D8DFE813F04000320027
:104D800076009700AE00B200C8003200DB003200AF
:104D90003200010115013400A2492846FEF7E8FC63
:104DA000E36901AA191D8A4203D202A98B42C0F00D
:104DB0002C81186859689F68DE681C69019002910F
:104DC00058699969DB6903970496059406900791E1
:104DD00008930023284694498DF82430FEF73AFDC5
:104DE0000BB0F0BD9148924B9249C01AC008000424
:104DF00040F00300FEF7BCFC0BB0F0BD8C4B8B4CBD
:104E00008D4E8E498E4DE41AE408240444F00300CC
:104E1000FEF7AEFCB068FCF78BFAF068FCF788FA96
:104E200088482E683DF07DFF314682B2864B874828
:104E300001F0F8FA28B10246854944F00100FEF776
:104E400009FD8048834E3DF06CFF33782968C2B27B
:104E5000002B00F0BA807C4B7C4801F01FFB00283F
:104E600040F0C7803070BBE7714B7048724E7A4992
:104E7000C01AC008000440F00300FEF779FC4FF0B0
:104E8000A044B068FCF7BEF900254FF40043F06879
:104E9000C4F80835C4F80C55FCF7B4F94FF4803366
:104EA000C4F80835C4F80C559AE7614B5F486B4964
:104EB0006B4D6C4FC01AC008000440F00300FEF7B1
:104EC00057FCA668F36830687168B2680FC5338A0A
:104ED0002B8023793B7083E75448554B624984E724
:104EE000534B524D6149ED1AED082D0445F0030571
:104EF0002846FEF73DFC524B228B9B889A423FF49A
:104F00004BAF28465A49FEF733FC69E7484B474DFB
:104F10005849ED1AED082D0445F003052846FEF723
:104F200027FC474B228B54499A802846FEF792FC77
:104F300056E73F4B3D4D5149ED1AED082D0445F024
:104F400003063046FEF714FC22794D493046FEF741
:104F500081FC3E4801F060F903283ED0414A494BAC
:104F600012783F49394801F097F900283FF438AFEB
:104F70000246454945F00100FEF76CFC30E72C4B3A
:104F80002A484249C01AC008000440F00300FEF756
:104F9000EFFB4FF0A0434FF480310022C3F80C1513
:104FA000C3F808251CE7224B204D3949ED1AED08BE
:104FB0002D0445F003052846FEF7DAFB2846E38872
:104FC00062793449FEF7B8FC0AE71F4B1F4801F02D
:104FD00047FAA0B90123337002E71C4801F0DCF95D
:104FE00000283FF4FDAE02462B493046FEF732FC66
:104FF000F6E644F001002949FEF7BAFBF0E644F07A
:1050000001002749FEF7B4FBEAE6013B0DF103017D
:105010000DF1230413F8010F01F8010F8C42F9D1AF
:10502000D7E600BF6C430400A4430400D4EC0400A2
:10503000D4EC040010430400204C0020684104001C
:10504000140000201C000020C04D0020304C002027
:105050008C410400C24D002018420400304104007D
:10506000AC4D0020BE4D0020A4420400404304008B
:10507000B0430400404204006C4204007444040045
:10508000B0440400484D002018450400E0420400EC
:10509000FC4304003C440400E4440400C441040014
:1050A000F0410400034A0023106819460222FCF76D
:1050B000BDBE00BF204C002010B5094B094C18683C
:1050C0002146FCF71DFF236843B1074B4FF0805288
:1050D0005A6040BFBFF34F8FBFF36F8F10BD00BF4B
:1050E000204C0020C44D002000ED00E0704700BFC0
:1050F00000B54FF4004187B00020FEF7A9F9002861
:1051000040F09680FEF728F94B4A20210820FDF751
:10511000C3F9002840F08980FEF74AFE002840F0DD
:105120008180FDF729FA002879D10120FBF7F6F8F4
:10513000FEF7DEFF00286FD1002302A90D208DF8B5
:105140000A30ADF80830FFF725F8002861D10220B9
:10515000044603238DF80C0003A9384A8DF80E404D
:105160000B208DF80D30FFF7C7F800284ED1012134
:105170000B20FFF7A3F9324B32483349C01AC0085D
:10518000000440F00300FEF7F3FA0024012303A813
:10519000039404948DF80E30059402F08FFE02F013
:1051A00031FF2A4802F056FF294B01930222009258
:1051B00023464FF4006227492748FBF72DFF0128BB
:1051C00002D00420FDF720F9244B01930123009322
:1051D0004FF48072002322492248FBF71DFF01286B
:1051E00002D00420FDF710F91F4B01930123009317
:1051F0003C2200231D491E48FBF70EFF012802D068
:105200000420FDF701F9FCF7E1F8FEE7FDF7FCF8F3
:10521000ADE7FDF7F9F89AE7FDF7F6F88CE7FDF74B
:10522000F3F882E7FDF7F0F87BE7FDF7EDF873E7B9
:10523000FDF7EAF866E700BF0C4A0020A94B000022
:10524000D4EC0400D4EC040018410400394D0000F3
:10525000204C0020204104005D4C0000244C002024
:10526000244104004D4C0000284C0020284104003B
:10527000254C0000F0B502F1080583B007460C4646
:10528000164695E80700019700F0F0FA053000F0A7
:1052900073FAA0422ADC0146019800F073FA019BE0
:1052A00002AC184444F8040D0421204600F09AFA98
:1052B000B27DF37D00216FF3070162F3820163F396
:1052C000C3012046C9B200F08DFA2046012100F04A
:1052D00089FAB18A204600F08BFA204695E80E0044
:1052E00000F0A0FA0198C01B03B0F0BD6FF0010000
:1052F000FAE700BF30B50B4683B01146054601AA58
:105300001846009300F04CFA009B019A0344022ACD
:105310000446009302DC204603B030BD684600F02E
:105320005BFA0528F7D1684600F056FA0124286098
:10533000F1E700BF70B582B0161E044601900D461D
:105340001DDD032000F018FA854214DB01460198A8
:1053500000F018FA019B02AD184445F8040D18211D
:10536000284600F03FFA3146284600F041FA0198FD
:10537000001B02B070BD6FF0010002B070BD0120D3
:1053800000F0FAF985420146F5DB019800F0FAF9E0
:10539000019A02AB104443F8040D1821184600F09E
:1053A00021FAE4E782B030B583B006AC84E80C00A3
:1053B00006AB05460C4693E80700019500F056FA47
:1053C000013000F0D9F9A04218DC0146019800F044
:1053D000D9F9019B02AC184444F8040D162120466B
:1053E00000F000FA06AB20460ECB00F01BFA019845
:1053F000401B03B0BDE8304002B070476FF00100C1
:10540000F7E700BF2DE9F04184B090460AAA0646AE
:105410000D4607CA01AC84E807001F46009600F05D
:1054200025FA023000F0A8F9854221DB01460098F8
:1054300000F0A8F9009B04AD184445F8100D0721B1
:10544000284600F0CFF900216FF3070168F34611F9
:1054500067F304112846C9B200F0C4F9284694E85D
:105460000E0000F0DFF90098801B04B0BDE8F08169
:105470006FF00100F9E700BF82B070B584B008ACEE
:1054800084E80C0006460D4694E8070001AC84E869
:105490000700009600F0EAF9013000F06DF985424E
:1054A00018DB0146009800F06DF9009B04AD18442C
:1054B00045F8100D0921284600F094F9284694E893
:1054C0000E0000F0AFF90098801B04B0BDE87040FA
:1054D00002B070476FF00100F7E700BF10B50B4650
:1054E00082B01146044601AA1846009300F058F90C
:1054F000009B019A1844022A009003DC00231846FE
:1055000002B010BD684600F067F91B28F6D1684666
:1055100000F062F901232060F1E700BF10B50B46EF
:1055200082B01146044601AA1846009300F038F9EB
:10553000009B019A1844022A009003DC00231846BD
:1055400002B010BD684600F047F91D28F6D1684644
:1055500000F042F901232060F1E700BF2DE9F0439C
:1055600083B002AF002447F8044D0E9D0D9C0094BB
:1055700081460E462046904629463A461F4600F090
:105580000FF9009B019A18441444231A9D4200907D
:1055900003DA002003B0BDE8F083684600F01CF990
:1055A0000C28F6D1684600F017F9002360F30703D2
:1055B000C3F3010243F3C011C3F34110C3F300135B
:1055C00089F80010306088F800300A9BD1B21A7058
:1055D000E9B101291ED0684600F0FEF80A9B187157
:1055E000684600F0F9F80A9B5871684600F0ECF83C
:1055F0000A9B38801B7813B93368032B10D0009BAB
:105600000C9AE41A14600B9A01201360C2E7336805
:10561000032B0CD0684600F0D7F80A9B9880E4E78B
:105620000A9A009B92680A994B601344E8E768461F
:1056300000F0CAF80A9B9860D7E700BF2DE9F04157
:1056400082B00DF1080E00244EF8044D089D009321
:1056500080460F4618461646294672461C4600F0FC
:105660009FF89DE80C0010441C44241AA5420090A9
:1056700004DA0023184602B0BDE8F081684600F065
:10568000ABF80D28F5D1684600F09EF8A8F80000A8
:10569000684600F099F83880684600F09DF80123CC
:1056A0003070E7E72DE9F04383B00DF1080E0026D6
:1056B0000A9D4EF8046D81468846184617462946CD
:1056C00072461C46009300F06BF89DE80C001044F5
:1056D0001C44231A9D42009003DA002003B0BDE869
:1056E000F083684600F078F80A28F6D1684600F0A2
:1056F0006BF8A9F80000684600F066F8009BA8F86F
:105700000000E41A3E607C60BB600120E6E700BF59
:105710002DE9F04182B00DF1080E00244EF8044D41
:10572000089D009380460F46184616462946724645
:105730001C4600F035F89DE80C0010441C44241A67
:10574000A542009004DA0023184602B0BDE8F081BB
:10575000684600F041F80B28F5D1684600F034F8AF
:10576000A8F80000684600F02FF83880684600F07E
:1057700033F801233070E7E7FF28CCBF0330013056
:10578000704700BFFF29034606DD81700A12012120
:105790004270032019707047C9B201201970704718
:1057A00000290EDD0378012B02D013600120704721
:1057B000022906DD4178837803EB0123136003207F
:1057C00070474FF0FF307047036819785A780233FA
:1057D000036002EB012070470368024613F8010BD7
:1057E00013607047036819700368013303607047E2
:1057F00000290268B4BF01F1FF030B461B1210B46D
:10580000137002684B42DBB2C9B202F1010458BF07
:1058100059420460517003685DF8044B0133036022
:10582000704700BF70B584B004AC04E90E00029D5F
:10583000002D04460FDC019D5DB128463DF071FA54
:1058400029460646024620683CF0E1FD20683044C7
:10585000206004B070BD2A46039900683CF0D7FD73
:1058600023681D44256004B070BD00BF84B004AB44
:1058700003E90700019810B104B03DF052BA029854
:1058800004B0704770B582B0054602200C46019501
:105890001646FFF771FFA04214DC01460198FFF79E
:1058A00071FF019B02AC184444F8040D012120460D
:1058B000FFF798FF20463146FFF794FF0198401B01
:1058C00002B070BD6FF00100FAE700BF2DE9F04FA4
:1058D00085B08B469DF84040129E01969DF8389009
:1058E000BDF83C80149D0390064692461F460CB9B5
:1058F000032B4BD006202844FFF73EFF584548DCD9
:1059000001460398FFF73EFF039A0DF1100B104478
:105910004BF8040D0C215846FFF764FF00216FF38C
:1059200007016AF3C71167F3461169F3041164F3C1
:105930000101C9B25846FFF755FFD4B1012C1AD95D
:105940009DF844105846FFF74DFF9DF84510584606
:10595000FFF748FF58464146FFF74AFF039813995F
:105960002A463CF054FD03982844801B05B0BDE84E
:10597000F08F032F10D0BDF844105846FFF738FFC2
:1059800058464146FFF734FF0398E8E7019B981D0E
:10599000B1E76FF00100E9E7019C58462146FFF7A7
:1059A00027FF41465846FFF723FF224611990398E7
:1059B0003CF02DFD039820440390D0E72DE9F04101
:1059C00082B0054606200C46019590461F469DF87C
:1059D0002060FFF7D1FEA0421DDC01460198FFF7D1
:1059E000D1FE019B02AC184444F8040D0D21204661
:1059F000FFF7F8FE41462046FFF7FAFE39462046FB
:105A0000FFF7F6FE20463146FFF7ECFE0198401BFB
:105A100002B0BDE8F0816FF00100F9E72DE9F04731
:105A200082B007460A9E019034688A46914698469D
:105A30004CB320463DF075F90546681DFFF79CFE06
:105A4000504524DC01460198FFF79CFE019B02AC07
:105A5000184444F8040D0A212046FFF7C3FE4946C6
:105A60002046FFF7C5FE41462046FFF7C1FE3168DC
:105A7000019851B12A463CF0CAFC01982844C01B49
:105A800002B0BDE8F0877568D7E7B168F2E76FF05C
:105A90000100F5E72DE9F04182B0054606200C46ED
:105AA000019590461F469DF82060FFF765FEA042D5
:105AB0001DDC01460198FFF765FE019B02AC18440E
:105AC00044F8040D0B212046FFF78CFE414620468A
:105AD000FFF78EFE39462046FFF78AFE2046314604
